:020000040000fa
:080000000001040000000000f3
:020000040000fa
:04000800f6020000fc
:020000040000fa
:04000c00f6020000f8
:020000040000fa
:04001000f6020000f4
:020000040000fa
:04001400f6020000f0
:020000040000fa
:04001800f6020000ec
:020000040000fa
:04001c00f6020000e8
:020000040000fa
:04002000f6020000e4
:020000040000fa
:04002400f6020000e0
:020000040000fa
:04002800f6020000dc
:020000040000fa
:04002c00f6020000d8
:020000040000fa
:04003000f6020000d4
:020000040000fa
:0400340014020000b2
:020000040000fa
:04003800f6020000cc
:020000040000fa
:04003c00f6020000c8
:020000040000fa
:04004000f6020000c4
:020000040000fa
:04004400f6020000c0
:020000040000fa
:04004800f6020000bc
:020000040000fa
:04004c00f6020000b8
:020000040000fa
:04005000f6020000b4
:020000040000fa
:04005400f6020000b0
:020000040000fa
:04005800f6020000ac
:020000040000fa
:04005c004c02000052
:020000040000fa
:04006000f6020000a4
:020000040000fa
:04006400f6020000a0
:020000040000fa
:04006800f60200009c
:020000040000fa
:04006c00f602000098
:020000040000fa
:04007000f602000094
:020000040000fa
:04007400f602000090
:020000040000fa
:04007800f60200008c
:020000040000fa
:04007c00f602000088
:020000040000fa
:04008000f602000084
:020000040000fa
:04008400f602000080
:020000040000fa
:04008800f60200007c
:020000040000fa
:04008c00f602000078
:020000040000fa
:04009000f602000074
:020000040000fa
:04009400f602000070
:020000040000fa
:04009800f60200006c
:020000040000fa
:04009c00f602000068
:020000040000fa
:0400a000f602000064
:020000040000fa
:0400a400f602000060
:020000040000fa
:0400a800f60200005c
:020000040000fa
:0400ac00f602000058
:020000040000fa
:0400b000f602000054
:020000040000fa
:0400b400f602000050
:020000040000fa
:0400b800f60200004c
:020000040000fa
:0400bc00f602000048
:020000040000fa
:0400c000f602000044
:020000040000fa
:0400c400f602000040
:020000040000fa
:0400c800f60200003c
:020000040000fa
:0400cc00f602000038
:020000040000fa
:0400d000f602000034
:020000040000fa
:0400d400f602000030
:020000040000fa
:0400d800f60200002c
:020000040000fa
:0400dc00f602000028
:020000040000fa
:0400e000f602000024
:020000040000fa
:0400e400f602000020
:020000040000fa
:0400e800f60200001c
:020000040000fa
:0400ec00f602000018
:020000040000fa
:0400f000f602000014
:020000040000fa
:0400f400f602000010
:020000040000fa
:0400f800f60200000c
:020000040000fa
:0400fc00f602000008
:020000040000fa
:04010000f602000003
:020000040000fa
:04010400f6020000ff
:020000040000fa
:04010800f6020000fb
:020000040000fa
:04010c00f6020000f7
:020000040000fa
:04011000f6020000f3
:020000040000fa
:04011400f6020000ef
:020000040000fa
:04011800f6020000eb
:020000040000fa
:04011c00f6020000e7
:020000040000fa
:04012000f6020000e3
:020000040000fa
:04012400f6020000df
:020000040000fa
:04012800f6020000db
:020000040000fa
:04012c00f6020000d7
:020000040000fa
:04013000f6020000d3
:020000040000fa
:04013400f6020000cf
:020000040000fa
:04013800f6020000cb
:020000040000fa
:04013c00f6020000c7
:020000040000fa
:04014000f6020000c3
:020000040000fa
:04014400f6020000bf
:020000040000fa
:04014800f6020000bb
:020000040000fa
:04014c00f6020000b7
:020000040000fa
:04015000f6020000b3
:020000040000fa
:04015400f6020000af
:020000040000fa
:04015800f6020000ab
:020000040000fa
:04015c00f6020000a7
:020000040000fa
:04016000f6020000a3
:020000040000fa
:04016400f60200009f
:020000040000fa
:04016800f60200009b
:020000040000fa
:04016c00f602000097
:020000040000fa
:04017000f602000093
:020000040000fa
:04017400f60200008f
:020000040000fa
:04017800f60200008b
:020000040000fa
:04017c00f602000087
:020000040000fa
:04018000f602000083
:020000040000fa
:04018400f60200007f
:020000040000fa
:04018800f60200007b
:020000040000fa
:04018c00f602000077
:020000040000fa
:04019000f602000073
:020000040000fa
:04019400f60200006f
:020000040000fa
:04019800f60200006b
:020000040000fa
:04019c00f602000067
:020000040000fa
:0401a000f602000063
:020000040000fa
:0401a400f60200005f
:020000040000fa
:0401a800f60200005b
:020000040000fa
:0401ac00f602000057
:020000040000fa
:0401b000f602000053
:020000040000fa
:0401b400f60200004f
:020000040000fa
:0401b800f60200004b
:020000040000fa
:0401bc00f602000047
:020000040000fa
:0401c000f602000043
:020000040000fa
:0401c400f60200003f
:020000040000fa
:0401c800f60200003b
:020000040000fa
:0401cc00f602000037
:020000040000fa
:0401d000f602000033
:020000040000fa
:0401d400f60200002f
:020000040000fa
:0401d800f60200002b
:020000040000fa
:0401dc00f602000027
:020000040000fa
:0401e000f602000023
:020000040000fa
:0401e400f60200001f
:020000040000fa
:0401e800f60200001b
:020000040000fa
:0401ec00f602000017
:020000040000fa
:0401f000f602000013
:020000040000fa
:0401f400f60200000f
:020000040000fa
:0401f800f60200000b
:020000040000fa
:0401fc00f602000007
:020000040000fa
:100200004fd021000eff27000e01880000000000e3
:10021000000020000000e000020032000001200089
:100220002002880014000700f20007000000e00030
:1002300003003a0080762000010020000200370011
:100240000000200001002000810f7000010032003a
:1002500014000700000020000000e000020032004f
:10026000000002000000000038280200000000002a
:100270000040da000000fe004440a90060052000b4
:100280000000e00003003200002020009001880000
:100290004440a800000006008a1f78008b1f7800e9
:1002a00000000600a1028800800478000000eb0036
:1002b0001f003700e284440054a0b4009905ba003e
:1002c000e284440054a0b4009906ba00e2844400d9
:1002d00054a0b4000006eb00476fde00fd07b2003b
:1002e000ae018800636ce10003003a00eaff0700fa
:1002f0000000eb000e003700606ce10008003a00df
:10030000004deb000a05e800020039003420ec0043
:100310000af0a0008b05e900f9ff3e000400370059
:100320006168e100010032000086eb000b0007006d
:1003300019c7ba001905ba000e04e00003003a001c
:100340000a00e000dbff3a0000000600fe07b200f2
:10035000ae0288008a047800f5ff37000cd0a300b5
:10036000e20f4d001c00390089027800354dba00bb
:100370000a05e800020039003420ec000af0a00071
:100380008b05e9000f003200254dba000a05e80090
:10039000020039003420ec000af0a0008b05e900cf
:1003a000080032000c00e0000600320015cdba0053
:1003b0000a05e800020039003420ec000af0a00031
:1003c0008b05e9008984e80054a0b4000b00e0002c
:1003d000e2ff3a00000006009902ba00055d7800cd
:1003e0008b05e900f7ff3200c82ade00055d7800c2
:1003f0008b05e900f3ff32000c00e000f1ff320052
:1004000019ddba00eeff3700962c04000000000052
:10041000ac2c040000000000ce2d04000000000001
:10042000982a0400000000003600f800809fbe00fb
:10043000829fbe00849fbe00869fbe003200f800ef
:100440003400f80010002000a001880000202000e7
:10045000900188000000fa008860a90023050700c9
:100460000000e0000300320028230200000000002a
:10047000000000000080fa003400f9003200f900aa
:100480004f03be004f02be004f01be004f00be0032
:100490003600f900004006003600f800809fbe00dc
:1004a000829fbe00849fbe00869fbe003200f8007f
:1004b0003400f80010002000a00188000020200077
:1004c000900188000c00fa0089a0a9005042800029
:1004d000e70f50000c0034003902070071002000c3
:1004e00001017800110009000200d8008000fd0021
:1004f000c200dd0040c7210000804000301f7800ae
:100500002017780008003700504280004201dd00cb
:1005100041c7210081004100311f78002117780078
:100520000000e80050428800028024005365240047
:100530001e00be0066010700020020000313240015
:100540008b000700d0000700200798002e009000c5
:10055000cf80de000801070072d12100b3492400da
:100560008300070020408800314088002040800040
:100570003140800002002000a33724007c000700e7
:10058000300798004107980002002000a34724008c
:100590003e009000ce0090004d0107000040880012
:1005a00011408800404280008001eb000001eb0018
:1005b000018020005e040700e10f500002003200bd
:1005c00010002000500798000080fa003400f90065
:1005d0003200f9004f03be004f02be004f01be00c3
:1005e0004f00be003600f900004006000040da006f
:1005f0000000fe000000050003f0a200889fbe007e
:100600008a9fbe008c1f780019010700200133006b
:100610006450e1004f0032006420e10052003200db
:1006200003826c0007003b000905d0000306d000e0
:10063000820f54000c065d000200390002003200f7
:1006400089017800030678008582550004003d008a
:100650000003fd008103fd008502ea008b85420056
:10066000840f720002003b0060001000e080180060
:100670006011b8000005eb007a28e1000a0039009b
:1006800006007800c75ddd00f707b20087807500bf
:100690002d003700828171000a0178006105600039
:1006a0008180d1000080d3008502e900f9ff3b0082
:1006b000060440008784480002003b0060041400e8
:1006c000e0841c000988a300070032008a817100c1
:1006d00082817100610164008904d1000884d30023
:1006e0008b05e800170037000978a30013003a00d3
:1006f0000b00e000130034008b05e90008044400ff
:1007000089844c000a4474000978a3000d003a0063
:100710000b00e000070034008b05e90008044400ea
:1007200089844c0001003a000b0020000978a300e6
:10073000f7ff32000001eb000200370082817100f8
:100740000a0178008f0007000cf0a70001f0a0005c
:10075000d80037006420e10002003a00838f6c006b
:10076000d80033000801be000200be00d1003700ef
:10077000889fbe008a9fbe008c1f7800bc000700c7
:10078000c300330003866c006450e1002e00320089
:100790006420e100330032006150e1002f0032009c
:1007a0006120e1003100320085855500eb07b00083
:1007b0000900200008042000050037000804440058
:1007c00089844c000a0031000603430087834b00f4
:1007d0000001530081815b00f8ff33000203be007b
:1007e0000800a0000804440089844c00f6ff39008a
:1007f000c639dd00830173000100320013002000c0
:100800008904d1000884d3000998a30005003200b0
:100810000800a7000300a0008904d1000884d300c9
:100820008b05e8008904d1000884d3000001eb00a7
:100830000281d2005300070001f0a1000cf0a700d4
:1008400001f0a0009b0037006420e1009d00320011
:100850000801be000200be00f7ff37006120e10082
:10086000980032006000b800f3ff3700000020005d
:1008700001f82700f0ff370014002000c8003700ff
:10088000f4ff2f00c60037000001be006300070020
:100890000470a70003f0a1006509b1001600320042
:1008a0000d0035006828e10006003500f0ff2f003c
:1008b000f1ff27000300e00013003b0001002800c7
:1008c0000000050000004000818048008502e9002a
:1008d000fcff3a0008003700f88f420002003c009d
:1008e0008000eb00000005008100d1000080d300f3
:1008f0008502e800fcff3a000300e00002003b0034
:1009000060001000e0801800000006000001be003a
:10091000420007000470a70003f0a10003f8a30041
:1009200013003a006509b1001000320009003500db
:100930006928e100020035000100280000000500e0
:1009400000004000818048008502e900fcff3a0079
:1009500000000600f88f4200050035008100d1003c
:100960000080d3008502e800fcff3a00000006008a
:100970008000eb00000005004f89de008201780056
:10098000a200370081002000618055000b003d006f
:100990000b00200061fe2f000100e1001d0034006b
:1009a00082817100610164008904d1000884d30050
:1009b0000000e800faff3a007100200061006400c6
:1009c000030070000200600009003200610444006e
:1009d000e0844c000988a500050032008b05e80082
:1009e0006808e10002003a008904d1000884d300bd
:1009f000f20f20000258e10005003d00c75ddd0058
:100a0000f907b20089807500080078000000060030
:100a10000bf827008b00780000000500c70ade00f5
:100a2000f107b200f50fb20008003200e1cf42003a
:100a3000020032000170a00024000500810f700048
:100a4000010032000408050044000500810f700019
:100a500002003a00140005008502e9000000400091
:100a600081c04800fcff3b000170a000240005008d
:100a70000004be00e9ff07000003be000405be003d
:100a80000200be00e5ff0700844f7500000006006d
:100a90000200be006450e100050036006420e10061
:100aa000020036000968a30001003a000800be00f9
:100ab0000160a0004f0678004f05be004f04be0045
:100ac00000000600f0ff2f00f1ff2700f9ff3700bc
:100ad000889fbe008a9fbe008c1f7800e4ff07003d
:100ae000ebff330003866c006450e1002400320009
:100af0006420e100270032006150e1002200320052
:100b00006120e100210032008b854200eb07b1003b
:100b10000134b800003ab8000804420089844a0051
:100b2000013ab8000030b8008880400009014a004e
:100b300004003300000040008180480002014900a9
:100b40008b05e900c909dd00830170000100320056
:100b500013002000c814de004814dd004709de0041
:100b60001200b200c808de000884700085ff07008c
:100b700001f0a1000cf0a70001f0a000cdff3700ac
:100b80006120e100cfff32000801be000200be007c
:100b9000f7ff37006150e100fcff3a00c9ff370062
:100ba000889fbe008a9fbe00841f7800b0ff0700a8
:100bb0004f00780011003300f0ff2f00838f6c008e
:100bc00006003b00040565000a00a7000800370086
:100bd00009f0a6001000200008003700820f540022
:100be000838f5c00030039001000200001003e00ec
:100bf0000000200009f0a7000000ea004f05be0039
:100c00004f04be000000e00000000600881f7800ce
:100c1000030478000300e00007003d0060001000be
:100c2000e080180060011900e081190002003b001b
:100c300001f02d00030037000400070008f0a700b2
:100c400001f0a0004f04780000000600889fbe005d
:100c50008a9fbe000082700004027100048271004d
:100c6000260032000004be000200be006011b80081
:100c70006b092000950220000182cf000a00390094
:100c80000541b1000082cf00070039000541b100e5
:100c90000982cf00040039000541b1000882cf006d
:100ca000010039000541b100054252001200320036
:100cb0000a003b0082817100610164008100d10063
:100cc0000080d3008984d3000884d3008b05e8001a
:100cd0000442e800f7ff3a00070037000804440028
:100ce00089844c0000004800818048008b05e900a1
:100cf0000442e900f9ff3a0022ff07004f05be0059
:100d00004f04be0000000600e68747008e1f7800f3
:100d1000d0bf9f00e1bf9f000e0037005fba970071
:100d200014407800efb99700934078000201e90081
:100d3000814f5000040032000080fb008180fb00e6
:100d4000010050000600370066875700041fe800c6
:100d5000030fe8000200e000f0ff3a000000eb00a3
:100d60004f0778006f00b100000006008001780096
:100d700002003700b15978000201e9000200e000ea
:100d8000fcff3a00000006008001780002003700f6
:100d9000815978000201e9000200e000fcff3a00fe
:100da000000006008000eb0000e8880011e88800e1
:100db00011c0b300e0cf2100014878000000060018
:100dc000e0cf21001004e00002003a0010002000f3
:100dd000f4ff0700d2e62400631c240000e8800032
:100de00011e880000900070092032300030020009f
:100df000000141008181490002e8880013e8880071
:100e00000300780000f0a10000000600020ab9000b
:100e1000001bb9000200b8008100420081004300bd
:040e200000000600c8
:020000040000fa
:100e2400111100002222000033330000444400006a
:100e3400555500006666000077770000888800003a
:100e440099990000aaaa0000bbbb0000cccc00000a
:100e5400dddd0000eeee0000cecd0000acab000006
:100e6400494400004c45000000a50000a5a5000071
:100e7400a5a50000a5a50000a5a50000a5a5000046
:100e8400a5a50000a5a50000a5a50000a5a5000036
:100e9400a50000004164000063540000696d000077
:100ea40065720000000000005265000063650000e8
:100eb400697600006572000000000000546d0000b7
:0c0ec40072200000537600006300000064
:020000040000fa
:100ed0000c0800000200000082000000ef0000008b
:100ee000901c00001400000080000000a41c000002
:100ef0000a00000080000000ae1c00000a00000094
:100f0000800000000e0800000200000080000000c9
:100f1000100800000200000080000000b81c000063
:100f20000a0000008000000012080000020000001b
:100f30008000000014080000020000008000000093
:100f400016080000020000008000000018080000e1
:100f500002000000800000001a08000002000000eb
:100f6000800000001c08000002000000800000005b
:100f70004c1c00002800000080000000c21c000083
:100f80000a00000080000000cc1c00000a000000e5
:100f9000800000001e080000020000008000000029
:100fa000200800000200000080000000d61c0000a5
:100fb0000a00000080000000e01c00000a000000a1
:100fc00080000000220800000200000080000000f5
:100fd0002408000002000000800000002608000035
:100fe000020000008000000028080000020000004d
:100ff000800000002a0800000200000080000000bd
:101000002c08000002000000800000002e080000f4
:101010000200000080000000300800000200000014
:101020008000000032080000020000008000000084
:1010300034080000020000008000000036080000b4
:101040000200000080000000ea1c00000a0000000e
:1010500080000000f41c00000a0000008000000076
:101060003808000002000000800000003a0800007c
:1010700002000000800000003c08000002000000a8
:10108000800000003e080000020000008000000018
:101090004008000002000000800000004c08000032
:1010a0000014000080000000420800000200000060
:1010b00080000000440800000200000080000000e2
:1010c0004608000002000000800000004808000000
:1010d00002000000800000004a080000020000003a
:1010e00080000000741c00001c0000008200000052
:1010f0000000000000000000003f000000803f00f2
:101100000000c0003f000000004000000020400040
:101110000000400040000000000800000400000043
:1011200080000000040800000400000080000000af
:10113000080800000400000080000000fe1c000001
:0c1140000600000080000000000000001d
:020000040000fa
:10114c001400fa00400798005207980063079800b3
:10115c0071079800040f9800150f980010002000dc
:10116c00000f7800ce009000110798000000eb00f3
:10117c00200798000e0890000000e00005003200e7
:10118c001e00900090109000001090000e0990002e
:10119c000089be001e0090004061900062479800dc
:1011ac001e00900021c0b300416098007e009000aa
:1011bc00e20f500017003200e20f500005003e0015
:1011cc000000e0002e003200e10f5000060032005b
:1011dc002c003700e30f500017003200e40f5000d2
:1011ec001b003200270037001e00900000119000f9
:1011fc00901190005e009000ee00900000007100d5
:10120c00818071001e01900000119800111198004e
:10121c001c0037001e0090009010900000109000f1
:10122c0061004000e08048001e0190000011980011
:10123c0011119800130037001e0090005e01900001
:10124c00ee01900002109800131098000d0037006a
:10125c006e409000e24f5000060032001e009000dd
:10126c005e019000ee01900002109800131098009f
:10127c00040037000000eb00000f7800010037007d
:10128c00000000006e409000e14f50002c003a002e
:10129c00b04180000000e00016003a001e009000f3
:1012ac000080e8003b0d07001e009000b008900085
:1012bc0030418000808f5000030036001e009000eb
:1012cc0030089000304188001e0090000081e8003a
:1012dc001e009000300890006a00b9008000780071
:1012ec00c0c4210000804000820078001a0e070064
:1012fc00050037001e0090006c0040008000780054
:10130c0060cd2100140e07001e009000b008900064
:10131c00e040800030089000808f500008003600bc
:10132c001e0890000000e000030032001e08900030
:10133c001100200001087800100020006041880096
:0c134c001e0078000080fa00000006007f
:020000040000fa
:101358000e00fa00780037003e0090000000e00020
:1013680075003500de009000010f78001e0078003f
:10137800500090000000e000020032001e80e800eb
:10138800050d07006c004700940f07001007980030
:101398003e009000e50f500052003200e50f50006b
:1013a80007003c00e30f500034003200e30f500008
:1013b80039003c000000e0005a0035000700370003
:1013c800e80f50002d003200e80f500003003500f0
:1013d800e90f500030003200570037001e00780037
:1013e80020509000804078000104a0001e00780082
:1013f80021509800ce0090004e0190001e00780009
:101408006000900000004100810178001e019000fa
:10141800800078001e007800ba0a07000000e0008b
:10142800420032001e007800800890001e007800fc
:10143800010001001e007800205090000080fb0091
:10144800640060000000e0003a003200ce00900026
:101458001e00780060009000008040000002eb0051
:101468008001eb00000178008000eb001e0078008e
:10147800950b0700200798002f0037001e00780002
:1014880020509000804078000104a1001e007800e0
:1014980021509800280037001e0078002050900046
:1014a800804078000104a0001e00780021509800b8
:1014b800ce0090001e007800610098001e007800a1
:1014c800e00090001e009000008040009e01900007
:1014d8001e019000800078001e007800890a07002d
:1014e800150037001e007800205090000080fb0097
:1014f800620060000000e00003003a001e0078006f
:10150800b51107000c0037001e007800205090002d
:10151800804078000104a1001e0078002150980046
:10152800050037000000000003003700000000003d
:101538000100370000000000e0418000e60047009d
:101548000001eb00310207000000e00082ff3a00d2
:081558000080fa00000006000b
:020000040000fa
:101560001000fa00300798004207980053079800cf
:10157000610798007407980010002000000f7800a1
:10158000be00900011079800851007007e009000b3
:101590000000e000050032001e0090009010900056
:1015a000001090007e0190000089be001e00900097
:1015b00040619000424798001e00900021c0b30097
:1015c000416098006e009000e20f5000170032005a
:1015d000e20f500005003e000000e0002e00320047
:1015e000e10f5000060032002c003700e30f5000de
:1015f00017003200e40f50001b00320027003700b4
:101600001e00900000119000901190004e0090007c
:10161000de00900000007100818071001e019000ca
:1016200000119800111198001c0037001e00900056
:10163000901090000010900061004000e080480091
:101640001e0190000011980011119800130037003e
:101650001e0090004e019000de01900002109800e4
:10166000131098000d0037004e409000e24f5000dc
:10167000060032001e0090004e019000de01900036
:101680000210980013109800040037000000eb00cf
:10169000000f780001003700000000004e4090006d
:1016a000e14f50001e003a001e0090000080e8004c
:1016b0003b0c07001e009000b008900030418000f5
:1016c000808f5000030036001e009000300890000c
:1016d000304188001e0090000081e8001e0090004c
:1016e000300890006a00b90080007800c0c4210072
:1016f00000804000820078001a0d07001e00900054
:10170000b0089000e040800030089000808f5000ca
:101710000300360028230200000000000000000043
:10172000f50f07001e0078000080fa000000060098
:020000040000fa
:101730001200fa005007980061079800720798009d
:10174000030f98000000eb00000f7800de0090000f
:10175000110798000100370000000000101007007a
:101760001e009000e00890001e009000700890009d
:10177000808f5000030039000e089000e20f5000e7
:101780001b003a000e099000ee0090001e00900031
:10179000a0040700200798001e0090001008900089
:1017a0000000e000090032001e00900072004000be
:1017b000610807000000e0000a0032002823020050
:1017c0000000000000000000060037002e0090001e
:1017d0000000e000030032002823020000000000a7
:1017e00000000000c40f0700100020003d0037007b
:1017f0007e0090000000e00003003a00be0f0700ea
:101800000000eb00370037001e0078000000e00009
:1018100004003a0066004700841007001000200012
:10182000000f7800b40f0700cb100700dc0f070093
:101830001e00900020609000e14f400003003a003d
:101840001e0090008040eb00216098001e00900078
:1018500030609000e14f400003003a001e0090000d
:101860008040eb0031609800a30f0700ee004700b6
:1018700066004700f80707000000e00015003a0086
:101880001e009000d00e07000000e0000d003200a6
:10189000fe0090001e00900068004000da0f070074
:1018a0001e009000b4070700050407000000e000d8
:1018b000a9ff3a00282302000000000000000000f9
:1018c000a6ff37001e009000ab070700fc030700cf
:1018d000a2ff37001e009000a7070700f8030700cb
:0c18e0000000eb000080fa000000060091
:020000040000fa
:1018ec000a00fa000000eb00000f7800b041800005
:1018fc000000e00063003a00204180000000e80096
:10190c00100798009e009000214188001e00900056
:10191c000000e0000a003a00f14080002107980026
:10192c0000418000f0408800ae009000014188002a
:10193c00704180000000e800704188000b0f070028
:10194c00904180009e009000808f50003c00390038
:10195c000100370000000000f0408000100078000b
:10196c000000e00003003a000080eb00904188008a
:10197c0033003700f04080003000900030009000c1
:10198c00300798003e0090009000900041079800ae
:10199c009e0090004e009000808f5000030031009c
:1019ac00ce00900091418800250037003e00900049
:1019bc000080e800770b07003e00900020089000a4
:1019cc000000e000030032003e0090006c0040007c
:1019dc00700b07003e009000b00890003041800072
:1019ec00808f5000030036003e00900030089000bd
:1019fc00304188003e0090000081e8003e009000dd
:101a0c00300890006a00b90080007800c0c4210042
:101a1c0000804000820078004f0c07003e009000d0
:101a2c00b0089000e040800030089000808f50009b
:101a3c00c8ff390010002000000f7800c6ff3700e7
:101a4c00e0408000300890006a00b9008000780007
:101a5c00c0c421000080400010007800e10f50004d
:101a6c000200360010002000000f7800604180005a
:101a7c000000e0000600320010002000000f78008b
:101a8c0003003700504180000000e80050418800fe
:0c1a9c001e0078000080fa000000060028
:020000040000fa
:101aa8001200fa006007980071079800020f98006a
:101ab8000000eb00000f7800ee009000110798007e
:101ac800030037000000000001003700000000009c
:101ad800310f07001e009000e008900021079800d1
:101ae8002e0090000000e000180032001e00900058
:101af800b000900031079800fe0090001e00900092
:101b0800b30b07001e009000be0090003100980043
:101b18001e009000100890000000e000080032004d
:101b28001e00900072004000810707000000e000de
:101b3800030032002823020000000000000000001b
:101b4800eb0e070010002000410037000e0890003f
:101b58000000e00003003a00e50e07000000eb007b
:101b68003b0037001e0078000000e00004003a0047
:101b780068004700ab0f070010002000000f780036
:101b8800db0e0700f20f0700030f07001e0090008e
:101b980020609000e14f400003003a001e009000d2
:101ba8008040eb00216098001e009000306090009b
:101bb800e14f400003003a001e0090008040eb0017
:101bc80031609800ca0e0700f0004700680047001f
:101bd8001f0707000000e00015003a001e009000f3
:101be800850e07000000e0000d0032008e0890000e
:101bf8001e00900072004000010f07001e009000b8
:101c0800db0607002c0307000000e000adff3a00e8
:101c1800282302000000000000000000acff37008d
:101c28001e009000d206070023030700a8ff370014
:101c38001e009000ce0607001f0307001e0090003c
:101c48006d0e07000000e000a0ff32000000eb006e
:081c58000080fa000000060004
:020000040000fa
:101c60000a00fa0020079800310798004207980000
:101c7000ae0090001107980011028000f0f12f00d3
:101c8000008060000050a0001002880000000000ea
:101c9000000000001e009000600890000000e000be
:101ca00016003a004e0090000000e0000c003200e8
:101cb0001e00900072004000800078004e009000ee
:101cc000ff0a070011028000f0f12f000080600081
:101cd0001002880000000000c0ff2f004b003700fa
:101ce00011028000f0f12f000080600010028800d7
:101cf000000000000000eb004400370011028000eb
:101d0000f0f12f0000806000100288000000000049
:101d100011028000f0f12f00008060000050a00050
:101d20001002880000000000000000001e0090006b
:101d3000600890000000e0002c0032001e009000bf
:101d4000b00090001e0090000010900080804000c5
:101d50001e009000310098001e009000b00090001e
:101d60001e00900020009000808f50000400390079
:101d70001e009000900078001e0090003100980036
:101d80001e009000600890008000e9001e00900096
:101d9000610898001e009000801090001e009000c6
:101da0003000900001017800800078003e00900033
:101db000eefb070010002000000f78001e009000ce
:101dc000400090000000e0000a0032001e00900079
:101dd000680040009f0b07000000e0000500320093
:101de000b0ff2f00000f7800020037000000eb006a
:101df000000f780011028000f0f12f0000806000d9
:101e000010028800000000001e0078000080fa0028
:041e100000000600c8
:020000040000fa
:101e14001000fa00500798006107980072079800b4
:101e24000000eb00000f7800de009000110798001e
:101e3400030037000000000001003700000000002c
:101e4400560e07001e009000e0089000210798003d
:101e54002e0090000000e00016003200ee0090001a
:101e64001e009000db0a07002e0090008000e900ad
:101e74001e009000610898001e0090004000900031
:101e84000000e000080032001e00900068004000de
:101e9400a80607000000e000030032002823020027
:101ea4000000000000000000120e070010002000d7
:101eb400410037007e0090000000e00003003a007b
:101ec4000c0e07000000eb003b0037001e007800fa
:101ed4000000e00004003a0066004700d20e07004c
:101ee40010002000000f7800020e0700190f0700f1
:101ef4002a0e07001e00900020609000e14f400071
:101f040003003a001e0090008040eb00216098001e
:101f14001e00900030609000e14f400003003a0042
:101f24001e0090008040eb0031609800f10d070026
:101f3400ee00470066004700460607000000e00088
:101f440015003a001e009000ac0d07000000e000f0
:101f54000d003200fe0090001e0090007200400050
:101f6400280e07001e009000020607005302070017
:101f74000000e000afff3a00282302000000000048
:101f840000000000aeff37001e009000f9050700b6
:101f94004a020700aaff37001e009000f50507005b
:101fa400460207001e009000940d07000000e000a8
:101fb400a2ff32000000eb000080fa0000000600df
:020000040000fa
:101fc4001400fa002007980031079800420798008f
:101fd400530798006407980075079800060f980047
:101fe400170f98004e009000000040008000780019
:101ff4001e0890004008900001017800510a20005a
:1020040060fb07001e089000c008900011079800ac
:102014001e089000c00890004e019000f0ff2700b9
:102024000000410000004000808040001e08900035
:10203400710898003e0090000000e0001900320092
:102044000000eb00000f78000d0037003e00900008
:102054001e004000904078001e0890001e004000c2
:102064007a004000014878003e0090001e004000c5
:10207400104078000004e000050032001e0fe80064
:102084001e007800e30f5000f0ff36000100370017
:10209400000000001e0890008040eb00515898009a
:1020a400030037001e0890008040eb002158980080
:1020b4007e009000e30f5000020036003000200044
:1020c400700798001e089000fe00900031089800e8
:1020d4001e0890000080e800970e07001e0890007c
:1020e4006c004000940e07001e0890009e089000ab
:1020f400410098007e009000e40010001e0890004b
:10210400610098001e0890009e0890001108980035
:102114001e0990006000b800001198001111980089
:102124001e0890008040eb00416098006e01900012
:10213400ae0090001e009000880207008000780026
:102144001e089000010878000e0890000000e000ce
:10215400030032000e0890009e08900001087800e9
:082164000080fa0000000600f3
:020000040000fa
:10216c000e00fa0050079800610798000000eb0081
:10217c00000f7800de009000110798000300370074
:10218c00000000000100370000000000810d070076
:10219c001e009000e0089000210798002e0090008f
:1021ac000000e000130032002e0090008000e900d7
:1021bc001e009000610898001e00900040009000e6
:1021cc000000e000080032001e0090006800400093
:1021dc00d60507000000e0000300320028230200af
:1021ec000000000000000000400d0700100020005f
:1021fc00410037006e0090000000e00003003a0040
:10220c003a0d07000000eb003b0037001e00780081
:10221c000000e00004003a0066004700000e0700d2
:10222c0010002000000f7800300d0700470e07004b
:10223c00580d07001e00900020609000e14f4000f8
:10224c0003003a001e0090008040eb0021609800d3
:10225c001e00900030609000e14f400003003a00f7
:10226c001e0090008040eb00316098001f0d0700ad
:10227c00ec00470066004700740507000000e00012
:10228c0015003a001e009000da0c07000000e00078
:10229c000d003200ee0090001e0090007200400015
:1022ac00560d07001e009000300507008101070045
:1022bc000000e000b2ff3a002823020000000000fa
:1022cc0000000000b1ff37001e009000270507003a
:1022dc0078010700adff37001e00900023050700b2
:1022ec00740107001e009000c20c07000000e00003
:1022fc00a5ff32000000eb000080fa000000060091
:020000040000fa
:10230c000c00fa0040079800510798000000eb0001
:10231c00000f78005e009000e30f500002003600c2
:10232c0030002000500798001a0d07004e00900056
:10233c000000e00002003a00e0408000010037009d
:10234c004e009000100798001e009000b0089000fe
:10235c0021079800ae0090005e009000808f500026
:10236c0048003200de0090002e009000808f50005c
:10237c000c003600e04080009e009000808f5000e2
:10238c000e003200e0408000b00890005e0090002b
:10239c00808f500009003e0010002000000f7800d4
:1023ac0006003700e04080009e009000808f5000b7
:1023bc0002003a0010002000000f78001e00900070
:1023cc00b0089000310798001e009000de009000cd
:1023dc00310898001e009000600090000000e000a2
:1023ec00040035005e009000e40010001e00900018
:1023fc00610098001e009000500190003e0090007b
:10240c006a00b90080007800c0c421000080400040
:10241c00800f510015003a001e0090000080e8006b
:10242c00dc0807001e009000b008900030418000ce
:10243c00808f5000030036001e0090003008900082
:10244c00304188001e0090000081e8001e009000c2
:10245c00300890006a00b90080007800c0c42100e8
:10246c000080400082007800bb0907001e00780045
:10247c000000e000030032002823020000000000ee
:10248c0000000000990c07000080fa000000060014
:020000040000fa
:10249c000e00fa00100798002107980032079800e8
:1024ac00430798005407980065079800b90c07007b
:1024bc00e040800040609000e24f5000220032006b
:1024cc00e440800004119000941190001e009000d4
:1024dc00ae0090000080ea008180ea008202780061
:1024ec00030178008001780001007800838262008b
:1024fc00000061008000eb00c000dd000000200047
:10250c000001be006128b8000001710081817100da
:10251c000212980013129800e040800011c0b30022
:10252c00416098006e0090000000e0000600320050
:10253c00110020006e0090003407070028230200d1
:10254c000000000000000000680c0700910c070060
:10255c005e0090000000e00005003200e0408000ca
:10256c0090109000001090005e0190000089be0059
:10257c00e040800040609000e24f500003003200c9
:10258c000000eb00000f780018003700e4408000da
:10259c0004119000941190003e009000ce00900029
:1025ac000080ea008180ea00820278000301780052
:1025bc0080017800010078008382620000006100d5
:1025cc008000eb00c000dd00000020000001be0018
:1025dc006128b8000001710081817100021298001d
:1025ec001312980010002000000f7800e0408000cb
:1025fc008040eb00416098003c0c07001e00780006
:08260c000080fa000000060046
:020000040000fa
:102614000400fa00200d0700c140800001005000b2
:10262400d040880049003700b04080000000e80036
:10263400b0408800d04080000000e900d04088000d
:10264400b04080000000e00039003a007140800092
:10265400010f780080408000704088009e00780060
:1026640081408800330037007040800030009000c3
:1026740030009000100798001e0090009000900019
:10268400b0408000808f50002f003e001102800077
:10269400f0f12f00008060000050a00010028800bc
:1026a40000000000000000001e0090000080e80010
:1026b4003a0807001e009000200890000000e00087
:1026c400030032001e0090006c0040003308070035
:1026d40011028000f0f12f000080600010028800d9
:1026e400000000001e009000b0089000a040800090
:1026f400808f5000030036001e00900030089000c8
:10270400a04088001e0090000081e8001e00900098
:10271400300890006a00b9008000780000c92100e8
:1027240000804000820078000d0907000100370096
:102734000000000070408000100078000000e000fd
:10274400c9ff3a000100370000000000d0408000bb
:102754000000e000b4ff3a00b0408000c0408800b0
:082764000080fa0000000600ed
:020000040000fa
:10276c000a00fa00200798003107980042079800e9
:10277c00ae0090001107980011028000f0f12f00bc
:10278c00008060000050a0001002880000000000d3
:10279c00000000001e009000080b07000000e00085
:1027ac00160032004e0090000000e0000c003200d9
:1027bc001e00900068004000800078004e009000e1
:1027cc003c08070011028000f0f12f00008060002f
:1027dc001002880000000000c0ff2f0033003700fb
:1027ec0011028000f0f12f000080600010028800c0
:1027fc00000000000000eb002c00370011028000ec
:10280c00f0f12f0000806000100288000000000032
:10281c0011028000f0f12f00008060000050a00039
:10282c001002880000000000000000001e00900054
:10283c00e00890001e00900070089000808f5000ff
:10284c00120031000001eb00be0090001e00900051
:10285c006d00070010002000000f78001e00900093
:10286c00100890000000e0000a0032001e009000ea
:10287c0072004000f40807000000e0000500320080
:10288c00b0ff2f00000f7800020037000000eb00b3
:10289c00000f780011028000f0f12f000080600022
:1028ac0010028800000000001e0078000080fa0072
:0428bc000000060012
:020000040000fa
:1028c0000600fa000000eb00000f78000000eb00ab
:1028d00010079800b20b0700b04180000000e9002b
:1028e000b0418800b04180000000e00045003a009f
:1028f000104180000000e00042003200210037005b
:10290000e0e6800030009000000f78009e00780024
:102910006c804000a20707001e80e800a0070700a7
:102920001e007800b008900030418000808f500079
:10293000030036001e007800300890003041880007
:102940001e81e8001e007800300890006a00b9007f
:1029500080007800c0c42100008040008200780020
:10296000800807001e007800b0089000e04080005a
:1029700030089000808f50000200390010002000c5
:1029800060418800b0e680000000e000dcff3a0013
:102990001e0078000000e00001003200f60a070087
:1029a00051418000210798002e0090000000e000b7
:1029b0000c003200cdfb07000000e00002003200f6
:1029c00010002000604188002e0090000000e90007
:1029d000200798002e0090000000e000f5ff3a006c
:1029e0002a28ef00604180000000e000050032006e
:1029f00010002000100798002823020000000000ab
:102a0000000000003c0b07001e0090000080fa0050
:042a100000000600bc
:020000040000fa
:102a14000a00fa002007980031079800420798003e
:102a24000000eb00100798002e009000e0089000d2
:102a3400010f78002e009000001090000000e000cc
:102a4400400032004e0090000000e00019003a00ff
:102a54002e009000801090002e0090001000900036
:102a640001017800be009000bff807002e0090001e
:102a7400900090002e009000001090008080400094
:102a84002e009000110098002e00900090009000fd
:102a94002e00900020009000808f50002900390003
:102aa4002e009000900078002e00900011009800f5
:102ab400240037002e009000801090002e0090001b
:102ac4003000900001017800be009000a6f80700d5
:102ad4002e009000b00090002e0090000010900096
:102ae4000000ea00808040002e0090003100980031
:102af4002e009000b00090002e009000100078008e
:102b0400808f5000080031002e009000a00090003b
:102b14002e009000001090000000ea008080400029
:102b24002e009000310098004e009000e20f5000fb
:102b340004003a001e0078000000e00001003200aa
:102b44001e0fe9009e00e8002e0090006108980026
:0c2b54001e0090000080fa000000060047
:020000040000fa
:102b60002a00fa00201798003117980042179800a1
:102b7000e4004700227128000f000900b218780015
:102b8000be109000110798002e1090001e019000ba
:102b9000020878002e1090000080e80020179800ae
:102ba0002e1090008000eb00010878002e1090009d
:102bb0000080e800201798002e1090008000eb00a5
:102bc000010878002e1090000080e800201798007f
:102bd000ce1090002e109000010878002e1090006a
:102be0000080e800201798000000eb00000f78003c
:102bf0000a0037001e007800000040000000470077
:102c0000a00090002e109000010878002e10900077
:102c10000080e800201798001e0fe8001e007800d2
:102c2000ef0f5000f3ff3600210280002e109000bd
:102c3000010878002e1090000080e800201798000e
:102c4000910180002e109000010878002e10900055
:102c50000080e80020179800a10180002e1090004d
:102c6000010878002e1090000080e80020179800de
:102c70002e1090008000eb00010878002e109000cc
:102c80000080e800201798002e1090000080fa00c5
:042c9000000006003a
:020000040000fa
:102c94000a00fa00200798003107980042079800bc
:102ca400c00120003e060700100798001e00900097
:102cb4000000e0003c003200904080000000e00092
:102cc40003003a009e009000914088004f080700de
:102cd4003e009000e10f500002003600100020007a
:102ce400300798001e0090008000eb005108980007
:102cf4001e009000be009000310898001e00900055
:102d0400ce009000410898001e009000ae00900094
:102d1400010878001e0090000080e800860b070080
:102d24001e0090006c004000830b07001e00900002
:102d34009e009000410098001e0090009e009000ac
:102d4400110898003e009000e20010001e00900060
:102d5400610098001e009000b0089000a040800020
:102d6400808f5000030036001e0090003008900051
:102d7400a04088001e0090000081e8001e00900022
:102d8400300890006a00b9008000780000c9210072
:102d940000804000820078007107070010002000c6
:102da400000f7800020037000080eb00000f78006d
:0c2db4001e0078000080fa0000000600fd
:020000040000fa
:102dc0000600fa0010079800210798009e00900066
:102dd000010f7800720a07001e00780010017800c9
:102de0001e007800f00890001e007800001090008f
:102df0000088b90000007800800041001e007800c3
:102e0000210098001e0078008000eb006108980007
:102e10001e007800900078001e00780011009800d5
:102e20001e007800100178001e00780070089000e5
:102e30008000e9001e007800001090000088b900b2
:102e400000007800800041001e00780031009800ea
:102e50001e00780080c0eb00216098001e00780002
:102e600080c0eb00316098002e0090000000e00070
:102e70000d003a001e007800400090000000e000c5
:102e80000f0032009e00780068804000aa02070010
:102e90000000e0000a0032002823020000000000c9
:102ea00000000000060037009e00780068804000a7
:102eb0000b0807009e007800728040000808070099
:102ec0000d0a0700100020000080fa000000060034
:020000040000fa
:102ed0000a00fa003007980041079800be009000f1
:102ee000010f78000000eb00100798001e0078002a
:102ef000c0609000414798001e00780021c0b300d8
:102f0000416098001e007800901090000010900022
:102f100061004000e08048001e0178000011980028
:102f2000111198004e409000e14f50002a003a00e5
:102f3000b04180000000e00014003a001e80e8006c
:102f4000170607001e007800b0089000304180008e
:102f5000808f5000030036001e007800300890007b
:102f6000304188001e81e8001e0078003008900083
:102f70006a00b90080007800c0c4210000804000d1
:102f800082007800f7060700050037009e007800f1
:102f90006c8040008000780060cd2100f1060700c1
:102fa0001e007800b0089000e040800030089000db
:102fb000808f5000080036004e0090000000e000b6
:102fc000030032004e00900011002000010878003c
:102fd00010002000604188000080fa000000060018
:020000040000fa
:102fe0000600fa00b04180000000e000030032005b
:102ff0001000200060418800390037002c28ef00c5
:10300000e040800070089000100798001e009000bb
:1030100074005000100798004201200071732800ce
:103020001e00900038f707000000e00004003200a6
:10303000e0408000fa004000e0408000510a0700b4
:1030400031418000010f7800010037001e0fe900b8
:103050001e0078006a00b90080007800c0c421001a
:1030600000804000100078000000e000f7ff320010
:103070001e0078006a00b90080007800c0c42100fa
:1030800000804000200798002e0090001000900063
:10309000900090002e009000110098002e009000eb
:1030a000900090002e00900064004000808f50003f
:1030b00005003a002e009000100090009000900053
:1030c0002e009000110098002e009000100090003b
:1030d00030009000e04088009e0078003141880078
:0830e0000080fa000000060068
:020000040000fa
:1030e8000a00fa0020079800310798004207980064
:1030f800ae009000110798001e0090006008900034
:103108000000e000310032001e009000b000900086
:103118001e00900000109000808040001e0090006b
:10312800310098001e009000b00090001e00900032
:1031380020009000808f5000040039001e0090008d
:10314800900078001e009000310098001e0090004a
:10315800600890008000e9001e0090006108980057
:103168001e009000801090001e009000300090001b
:1031780001017800800078003e009000f9f6070011
:103188004e009000100078000000e0000c003a00ab
:103198001e009000400090000000e000080032008f
:1031a8001e00900068004000a80607000000e0002c
:1031b800030032004e009000110020000108780042
:1031c80010002000000f7800020037000000eb001c
:1031d800000f78001e0078000080fa00000006004a
:020000040000fa
:1031e8000200fa00000f78006b0907001041800008
:1031f8000000e80010418800e04080000000e00086
:1032080007003a009e007800e140880010418000e5
:10321800e10f50000d003a00c40607000b0037000c
:10322800404180000000e00008003a00e0408000d3
:10323800b00890001e00780030089000808f500081
:1032480002003e009e007800e14088008041800036
:103258000000e800804188001e007800b008900057
:1032680030418000808f5000030036001e00780037
:1032780030089000304188001e81e8001e00780068
:10328800300890006a00b90080007800c0c42100ae
:10329800008040008200780030060700140907000b
:1032a800404180000000e00009003200e04080005a
:1032b800b00890001e00780030089000808f500001
:1032c8000300310028230200000000000000000075
:0832d8000080fa00000006006e
:020000040000fa
:1032e0000c00fa0040079800510798000000eb001e
:1032f000000f7800180a070021418000110798008c
:103300004e009000900078005e0090000080400029
:10331000200798004e009000900078001e0090005a
:10332000808f50000c0036004e0090009000780016
:103330002e009000808f500012003600ae009000ea
:103340001e009000808f50000e00360010002000fc
:10335000000f78000b0037004e00900090007800be
:103360002e009000808f500004003e00ae009000c0
:103370001e009000808f50000200360010002000d8
:10338000000f78004e009000ae0090000108780019
:103390001e0078000000e00005003200ae00900042
:1033a0001e009000008050008000eb009a03070090
:1033b00043fd0700300798003e0090000000e00049
:1033c00003003a0028230200000000000000000073
:0833d0000080fa000000060075
:020000040000fa
:1033d8001200fa00500798006107980072079800d9
:1033e800030f9800de009000110798000000eb0022
:1033f800200798001e009000e00890001e00900032
:1034080070089000808f5000030039000e0890006b
:10341800e20f500025003a001e009000b0609000b6
:10342800614798001e009000e0089000410798004e
:103438000e099000ee0090001e00900073fd07003a
:103448006e409000e14f400010003a001e009000ce
:10345800100890000000e000110032001e009000eb
:1034680072004000320107000000e0000c0032004a
:103478007e0090000000e000090032007e0090000d
:103488001100200001087800050037006e40900008
:103498000040e800804078001e00900031609800ed
:1034a80010002000000f7800020037000000eb0039
:1034b800000f78001e0078000080fa000000060067
:020000040000fa
:1034c8000a00fa002d003700c0418000300090004b
:1034d800100f7800c041800030009000300090004c
:1034e800100798001e0090000080e800aa0407005a
:1034f8001e009000800890001e009000010001004e
:103508001e009000205090000080fb0064006000c6
:103518000000e000190032001e00900060009000da
:103528001e004000200798002e0090009e0f5000bb
:103538000b0036001e009000ae00900011009800ad
:103548001e0090009e009000410098001e00900010
:103558008080e800c041800038020700070037007b
:103568000002eb008001eb001e0178008000eb00f8
:103578001e0090005403070030079800c0418000e7
:10358800100078000000e000cfff3a00c141800041
:1035980041079800d0418000c0418800ce009000cb
:0c35a800d14188000080fa0000000600fd
:020000040000fa
:1035b4000400fa0010079800780807001e00900025
:1035c4000000e00002003a00e04080000100370003
:1035d4001e009000000f78001e80e8006f040700b2
:1035e4001e007800200890000000e0000300320074
:1035f4009e0078006c804000680407001e80e8008c
:103604008000780000ce2100550507001e007800d8
:1036140040609000e14f500003003a001e00780023
:103624008040eb0041609800320807004041800070
:103634000000e0000300320058080700cd0707002f
:103644002c080700e04080009e007800808f500026
:103654000e003a00404180000000e0000400320007
:1036640028230200000000000000000007003700cb
:1036740001e7800010418000808f500002003a0072
:103684001c28ef000100370054fe07000080fa00f8
:04369400000006002c
:020000040000fa
:103698001000fa0050079800610798007207980018
:1036a800de009000110798000000eb00200798004a
:1036b8001e009000e0089000310798003e0090003e
:1036c8000000e000250032001e009000a06090007d
:1036d800014f9800ee0090001e009000bc04070007
:1036e8003e0090008000e9001e00900061089800ec
:1036f8000e489000e14f400010003a001e00900074
:10370800400090000000e000110032001e00900010
:1037180068004000860007000000e0000c0032004e
:103728007e0090000000e000090032007e0090005a
:103738001100200001087800050037000e489000ad
:103748000040e800804078001e009000216098004a
:1037580010002000000f7800020037000000eb0086
:10376800000f78001e0078000080fa0000000600b4
:020000040000fa
:103778000400fa0010079800070807001e009000d0
:10378800b0609000014f78000b0037001e009000d9
:10379800100890000000e0000b0032001e009000ae
:1037a80072004000620007000000e00001003200e3
:1037b800f30807001e4fe9001e4078000004e000ef
:1037c800f2ff3c0001003700000000001e009000de
:1037d80080c0eb0031609800c5070700ee070700be
:1037e8001e009000a0609000114798000d0037005f
:1037f8001e009000400090000000e0000d00320024
:103808001e00900068004000490007000000e0002a
:1038180001003200da0807001e4090000040e9006d
:10382800104798001e4090000004e000f0ff3c00a4
:1038380001003700000000001e00900080c0eb006f
:1038480021609800aa0707000080fa00000006001f
:020000040000fa
:103858000a00fa003007980041079800ce070700d1
:1038680021418000110798003e0090001000900050
:103878009e00900000805000200798004e009000a5
:1038880010007800e10f400003003a000000eb0050
:10389800000f7800220037003e009000900078006a
:1038a80070418000808f5000080032003e00900078
:1038b800900090001e009000808f500003003e0092
:1038c80010002000000f7800150037004e0090000f
:1038d800900078002e009000808f50000b0036007a
:1038e8004e009000900078002e00900080805000dc
:1038f8004e009000010878003e009000490807003b
:103908000000eb00000f7800050037004e00900023
:103918008000eb000108780010002000000f7800fc
:10392800730707001e0078000080fa0000000600f8
:020000040000fa
:103938000600fa00200798002e0090003000900042
:1039480030009000100798001e0090006c004000a6
:1039580091030700b04180000000e00016003a0023
:103968001e0090000080e8008b0307001e009000f6
:10397800b008900030418000808f5000030036006e
:103988001e00900030089000304188001e00900012
:103998000081e8001e009000300890006a00b9001d
:1039a80080007800c0c421000080400082007800b8
:1039b8006a040700050037001e0090006c004000f4
:1039c8008000780060cd2100640407001e0090008c
:1039d800b0089000e040800030089000808f5000d0
:1039e8000500360010002000000f780010002000ad
:1039f80060418800020037000000eb00000f7800eb
:0c3a08001e0078000080fa00000006009c
:020000040000fa
:103a14000200fa00b6020700fdfa070006003700ac
:103a2400a04080000000e0002c003200a040800094
:103a34000000e900a0408800a04080006a00b900ae
:103a44008000780000c92100008040001000780048
:103a54000000e000f2ff3200a04080006a00b900dc
:103a64008000780000c92100008f40001e0078000b
:103a740010009000900090001e0078001100980043
:103a84001e007800900090001e0178006400410040
:103a9400808f500005003a001e007800100090004e
:103aa400900090001e007800110098001e0078001d
:103ab40010009000300090009040880090408000fa
:103ac4001001780090408000c00890009040800071
:103ad40002000100000000000100370000000000a7
:083ae4000080fa00000006005a
:020000040000fa
:103aec000e00fa005007980061079800de00900065
:103afc00110798000000eb00200798001e009000b2
:103b0c00e0089000310798001e009000f00890002b
:103b1c003e009000808f5000220036001e00900066
:103b2c00b0609000014f98003e0090008000e800cb
:103b3c001e009000610898000e489000e14f400074
:103b4c0010003a001e009000100890000000e000e9
:103b5c00110032001e0090007200400073ff07003d
:103b6c000000e0000c0032006e0090000000e0004d
:103b7c00090032006e00900011002000010878004e
:103b8c00050037000e4890000040e80080407800a7
:103b9c001e0090003160980010002000000f78008b
:103bac00020037000000eb00000f78001e007800c8
:083bbc000080fa000000060081
:020000040000fa
:103bc4000800fa002007980031079800f306070060
:103bd400e04080009010900000109000e00f500032
:103be400e08f58000c003a00e040800011c0b300a0
:103bf400416098003e0090000000e00006003200a2
:103c0400110020003e0090008201070028230200da
:103c14000000000000000000b6060700df060700f1
:103c2400e04080000011900090119000028fbe00cf
:103c34001e00be00e00f5000e08f58000f0032005d
:103c44002e0090000000e00005003200e2408000f9
:103c54006000b800001198001111980007003700a7
:103c6400e24080000082eb008082eb003e004200d4
:103c7400ae804a000011980011119800e0408000c5
:103c84008040eb00416098009a0607001e00be00c9
:083c94000080fa0000000600a8
:020000040000fa
:103c9c001000fa002007980031079800420798009e
:103cac00530798006407980075079800600220007d
:103cbc0039020700000f78001e0078000000e000b9
:103ccc000e0032004e00900000004000320207004f
:103cdc00800078001e007800410898001e007800d3
:103cec00400890000000e00004003a001e0078003c
:103cfc00b80707000000eb00000f78001e007800ea
:103d0c000000e000120032004e0090008000eb003a
:103d1c000001eb00821f78009e0378007e03900068
:103d2c00ee0290005e0290000001be00be0090000a
:103d3c002e009000a0f807008f87e9001e00780085
:103d4c0026fd070010002000100798000200370025
:103d5c000080eb00100798001e0090000080fa0015
:043d6c00000006004d
:020000040000fa
:103d70000800fa00300798000000eb00000f780000
:103d8000be009000110798000000eb00200798008b
:103d90001e0090006b0407000000e00026003200c7
:103da000b04180000000e0001e003a001e009000bc
:103db000b0089000e040800030089000808f5000f4
:103dc0000200390010002000000f78001e00900053
:103dd0000080e800720207001e009000b00890000a
:103de00030418000808f5000030036001e0090009c
:103df00030089000304188001e0090000081e800eb
:103e00001e009000300890006a00b9008000780021
:103e1000c0c42100008040008200780051030700e8
:103e2000050037001e0090006c0040008000780004
:103e300060cd21004b0307001e0078000080fa00cf
:043e40000000060078
:020000040000fa
:103e44000800fa0020079800310798003e0090000f
:103e540090007800110798001e009000e10f4000c8
:103e640004003a002e009000c0009000010f78007a
:103e74000d0037002e00900064004000000f780011
:103e8400030037001e00780090009000010f7800b6
:103e94001e00780010009000900078001e00900032
:103ea400808f5000f7ff36001e00780090009000cd
:103eb4003e009000110098003e0090001000900019
:103ec400be009000210098003e0090009e00780003
:103ed400210098001e007800be0090001100980098
:103ee4003e009000ae009000410098002e0090002b
:103ef400100078008000e8002e009000010878008f
:083f04000080fa000000060035
:020000040000fa
:103f0c000a00fa0010079800210798003207980061
:103f1c00430798000000eb00000f78001e00900093
:103f2c00ae009000110098001e0090009e009000c2
:103f3c0041009800ae0090003e009000808f500031
:103f4c000f003e00be0090004e009000808050009c
:103f5c001e00900060009000808f5000030039001c
:103f6c0010002000000f7800140037001e00900095
:103f7c008080e800d0418000afff07000f003700c1
:103f8c00be0090004e009000808f50000700310062
:103f9c00ae0090004e009000808f5000030039005e
:103fac0010002000000f7800040037001e00900065
:103fbc008080e800c04180009fff07001e00780051
:083fcc000080fa00000006006d
:020000040000fa
:103fd4000800fa00881f780020079800310798002d
:103fe4000200200003f42b002e009000be0090007d
:103ff400b6f2070002002000831a24007ef10700b5
:10400400008fbe0018c0b300020020000308240083
:104014002e009000be00900016f207000000e000a1
:10402400010035000044eb000804e0000b003a00f6
:1040340018c0b30002002000031a24002e009000d0
:10404400be0090000df207000000e00001003c00fb
:104054000044eb000804e0000300320000002000ec
:1040640001002400008fbe0002002000a3372400ba
:104074001e00be0095f2070002002000a3472400a2
:10408400baf1070040408800514088004f0478008e
:084094000080fa0000000600a4
:020000040000fa
:10409c000800fa002007980031079800ab060700cb
:1040ac000e80e8004c040700000f78001e00900002
:1040bc000000e00021003a003e0090000000e0000b
:1040cc0008003a002e0090009e0f500005003e00a4
:1040dc00f8f907009e0078002e009000a70007005a
:1040ec00190037003e0090000000e000070032008d
:1040fc00d04180001000780000f0a7000000ea001a
:10410c000000e9004f00de00300798002e00900000
:10411c009e005000e04180003e0190000802070024
:10412c00e4f907000000e00006003a002823020032
:10413c00000000000000000003003700ddf907005c
:10414c0001003700000000000080fa0000000600ab
:020000040000fa
:10415c000400fa00100798009e009000010f7800f0
:10416c00e04080009e007800808f500025003200d7
:10417c001e0078000000e0002200320085050700d8
:10418c001e0078006c0307000000e0001c003200e9
:10419c001e80e8007f0107001e007800b008900028
:1041ac0030418000808f5000030036001e007800e4
:1041bc0030089000304188001e81e8001e00780015
:1041cc00300890006a00b90080007800c0c421005b
:1041dc0000804000820078005f0207001e0078001b
:1041ec00b0089000e040800030089000808f5000b4
:1041fc00030039002823020000000000000000002a
:0c420c003a0507000080fa0000000600e0
:020000040000fa
:104218000800fa0020079800310798002141800023
:10422800010f7800e04080000080e8005a01070094
:104238002e009000e10f400009003a003e00900077
:104248000000e00006003200e04080000080e80046
:104258008000780000ce21004002070018003700d7
:104268002e0090001e00400010079800e0408000db
:104278009e009000110098001e0090009e0f5000b4
:1042880005003100e04080008080e80000418000a7
:10429800eafe07000a003700e04080008080e8005e
:1042a800f0408000e5fe0700904180009e009000ed
:1042b800808f5000020031009e00900091418800dc
:0842c8000080fa00000006006e
:020000040000fa
:1042d0001200fa0040079800510798006207980002
:1042e00073079800040f98000000eb00000f78009f
:1042f000e04180000000e00020003200de0090007d
:1043000011079800ee00900021079800ce00900061
:10431000310798005e009000e50f500011003c004e
:104320005f040700e20f500007003a00e041800000
:104330008e80e8008001eb000e099000fcf407007d
:10434000000f78000d003700e04180008e80e8000b
:104350008001eb000001eb00f5f40700000f78008e
:1043600006003700e04180008e80e8008001eb000d
:104370007e01900018fc0700000f78001e007800f6
:084380000080fa0000000600b5
:020000040000fa
:104388000800fa002007980031079800c041800013
:104398003000900030009000000f78001e80e80088
:1043a800fd0007001e007800205090000080fb00f0
:1043b800640060000000e000130032001e00780076
:1043c800e00090002e00900000804000ae019000b8
:1043d8003e019000800078001e007800c9fe0700aa
:1043e8000000e0000e0032000002eb008001eb004c
:1043f8002e0190008000eb001e007800b2ff07003d
:1044080010079800060037001e0078002050900022
:10441800804078000104a1001e0078002150980017
:104428001e007800800890001e007800010001003e
:084438000080fa0000000600fc
:020000040000fa
:104440000c00fa00300798004207980053079800c4
:104450003e0090000000e00002003a00e0408000d2
:10446000010037003e009000000f7800cc040700e8
:10447000e040800000119000901190001207980019
:10448000230798001e007800001190009011900002
:104490004e009000de0090000080ea008180ea007b
:1044a00002027800030178008001780001007800a2
:1044b00003026200000061008000eb00c000dd002c
:1044c000000020000001be006120b8000001710062
:1044d000818171001e00780002109800131098006e
:1044e000850407001e009000ae0090000080fa00d6
:0444f00000000600c2
:020000040000fa
:1044f4000200fa002500370011028000f0f12f00bd
:10450400008060000050a00010028800000000003d
:1045140000000000f0e5800030009000000f7800fb
:104524009e0078006c8040009c000700110280000f
:10453400f0f12f00008060001002880000000000ed
:104544001e80e800950007001e007800b008900067
:10455400a0408000808f5000030036001e007800c9
:1045640030089000a04088001e81e8001e007800fa
:10457400300890006a00b9008000780000c921006a
:10458400008040008200780075010700c0e58000cb
:104594000000e000d8ff3a000080fa0000000600a6
:020000040000fa
:1045a4000400fa00100798000000eb00000f7800e8
:1045b4001e00900061006000004078000004e000ec
:1045c400040032001e0090000000a1000080e800fa
:1045d400100798005f050700204280000000e000fb
:1045e40003003a00e08420000000a100204288007b
:1045f400114280001e00900080804000d03f2100c6
:10460400808f50000d003e00114280001e0090007b
:104614008080400010428000808f500007003600e8
:104624002142800010428000008f4000114280002f
:104634001e00900000804000104288009ff8070090
:0c4644001e0078000080fa000000060054
:020000040000fa
:104650004200f800801f780000022000100288004d
:10466000811f7800829fbe00849fbe00869fbe008f
:10467000889fbe008a9fbe008c9fbe008e1f780060
:104680003600f8005400f8004400f8003200f8004a
:104690003400f80060408000801f7800e040800017
:1046a0000f087800f017020000000000e0408000d2
:1046b000900778004f007800604088003400f900cf
:1046c0003200f9004400f9005400f9003600f90006
:1046d0004f0778004f06be004f05be004f04be00d6
:1046e0004f03be004f02be004f01be004f00be0090
:0846f0004200f9000000060081
:020000040000fa
:1046f8000600fa0010079800210798002e00900085
:104708008000780001f0a0001e00900001087800e9
:104718001e00900030009000000f78001e009000ee
:104728001d0007001e80e8001b0007001e0078001f
:10473800b008900030418000808f500003003600a0
:104748001e00780030089000304188001e81e80083
:104758001e007800300890006a00b90080007800d8
:10476800c0c421000080400082007800fb000700e0
:104778001e007800b0089000e040800030089000eb
:10478800808f500002003600100020006041880031
:084798000080fa000000060099
:020000040000fa
:1047a0000400fa00100798001e009000c00090005e
:1047b000010f78001e009000100090009e009000f5
:1047c000a1009000210098001e00900020009000a1
:1047d0009e00900091009000110098001e0078004b
:1047e000900090001e009000808f500004003a005e
:1047f0001e009000a00090001e007800110098009c
:104800001e0090008000eb00410098001e00780020
:10481000100078008000e9001e0078000108780090
:104820001e007800100078000080fa0000000600ea
:020000040000fa
:104830000c00fa00000f780011079800220798007a
:104840003307980044079800550798005e009000d1
:104850000000e00018003200770207005e009000c0
:104860001e0878005e0090009e0090006100980095
:104870005e009000be009000710098005e00900005
:10488000ce009000010898005e0090000080e800d3
:10489000aa0407002e0090000000e000060032008d
:1048a0005e00900020509000804078000124a0001d
:1048b0005e009000215098000080fa000000060081
:020000040000fa
:1048c0000600fa001007980021079800b140800008
:1048d0001e009000008f4000904080000080e800a3
:1048e000afff0700904080009e0078001100980004
:1048f000b04080009e007800808f5000050031009d
:10490000904080008080e800804080004dfd0700de
:1049100004003700904080008080e80070408000f4
:1049200048fd07002e0090000000e0000500320066
:10493000904080006c004000800078002e009000c5
:0c49400040fd07000080fa0000000600a7
:020000040000fa
:10494c000800fa0010079800210798003207980019
:10495c009e009000010f78008e0307001e00780067
:10496c0020609000e14f400003003a001e007800e8
:10497c008040eb00216098001e00780030609000b1
:10498c00e14f400003003a001e0078008040eb002d
:10499c0031609800550307001e00780060089000f5
:1049ac000000e00005003a009e0078007280400094
:1049bc003e019000ae0090006d0207001e007800d2
:0c49cc006afb07000080fa0000000600f3
:020000040000fa
:1049d8000400fa00000f7800110798001e00780004
:1049e800001090000000e000190032001e0078005e
:1049f800b00090001e0078000010900080804000f9
:104a08001e007800310098001e007800b000900069
:104a18001e00780020009000808f500004003900ac
:104a28001e007800900078001e0078003100980081
:104a38001e007800801090001e0078003000900062
:104a480001017800800078001e009000c5f0070082
:084a58000080fa0000000600d6
:020000040000fa
:104a60000800fa0010079800210798003207980004
:104a70009e009000010f78001e007800e008900072
:104a80001e00780070089000808f500012003100e6
:104a90000001eb00ae0090001e007800ddf707007b
:104aa0003e0090000000e0000b003a001e0078007d
:104ab000100890000000e000070032009e0078001f
:104ac00072804000630007000000e0000200320036
:104ad00010002000010037003e0090000080fa0026
:044ae00000000600cc
:020000040000fa
:104ae4000200fa00458320000002eb008001eb0085
:104af400320720002173280060c9220066fc0700e9
:104b0400000f78001e007800e10f500002003a0008
:104b140074020700000f78001e007800e10f5000b7
:104b24000d003a0011028000f0f12f0000806000b7
:104b34000050a000100288000000000000000000e7
:104b44000080eb0090418800100020004041880064
:104b54002428ef005e0107000080fa000000060030
:020000040000fa
:104b64000600fa0010079800210798001e00900024
:104b740090009000010f78002e0090009e007800b5
:104b8400110098001e007800a00090002e009000f4
:104b9400210098001e00780020009000ae009000d4
:104ba400110098001e007800ae00900021009800cb
:104bb4002e0090009e009000410098001e0090007e
:104bc400100078008000e8001e00900001087800c2
:084bd4000080fa000000060059
:020000040000fa
:104bdc000c00fa003007980041079800224f98000b
:104bec00be0090004e0090000088b90000007800d4
:104bfc00000f7800410220001e80400066fe070076
:104c0c00100798001e0090000000e0000b0032001e
:104c1c009e009000210798002e0090004002b000ea
:104c2c00200798001e029000ae4990002e019000c3
:104c3c00ce0090003e009000570007001e00900030
:084c4c000080fa0000000600e0
:020000040000fa
:104c54000600fa00200798002e0090003000900013
:104c640030009000100798001e0090006c00400077
:104c7400cafe07001e0090006c004000800078000f
:104c840080cb2100b6ff07001e009000b008900002
:104c94009040800030089000808f5000030039005d
:104ca40010002000000f7800020037000000eb0025
:104cb400000f78001e0078000080fa000000060053
:020000040000fa
:104cc4000c00fa004007980051079800ce009000ad
:104cd400110798000000eb00200798001e009000c8
:104ce400600890000000e0000c0032001e009000fc
:104cf400b000900031079800de0090001e00900084
:104d040034ff07001e009000be00900031009800a0
:104d140010002000000f7800020037000000eb00b4
:104d2400000f78001e0078000080fa0000000600e2
:020000040000fa
:104d34000200fa000000eb00000f780007003700c3
:104d44001e0078006a00b90080007800c0c4210009
:104d540000804000610007001e0fe8001e0078007c
:104d6400e30f5000f6ff360020cc21005b00070063
:104d7400c0cc21005900070060cd21005700070076
:104d840000ce21005500070020cc2100f04088000f
:104d9400c0cc2100004188000080fa000000060019
:020000040000fa
:104da4000a00fa00000f7800110798002207980003
:104db40063479800440798001e0090000000e0003c
:104dc40004003a00ce0090004e00900001087800e4
:104dd40003003700ae0090004e00900001087800f8
:104de4004e0090009e007800710898004e009000dc
:104df4009e00900001109800110020004e009000c9
:0c4e0400eef707000080fa000000060036
:020000040000fa
:104e10000200fa000000eb00000f780007003700e6
:104e20001e0078006a00b9008000780000c92100e7
:104e3000008040002a0007001e0fe8001e007800d6
:104e4000e10f5000f6ff360040ca210024000700a1
:104e5000e0ca21002200070080cb210020000700cb
:104e600040ca210070408800e0ca210080408800cc
:084e70000080fa0000000600ba
:020000040000fa
:104e78000600fa00200798002e0090000000e000cd
:104e880002003a00e0408000010037002e00900048
:104e980010079800400207001e0090004060900034
:104ea800e24f500006003a001e0090008040eb00e0
:104eb8004160980010002000000f780002003700c1
:104ec8000000eb00000f7800090207001e007800c0
:084ed8000080fa000000060052
:020000040000fa
:104ee0000200fa00000f78009e0078006480400005
:104ef000800078001e007800110098001e007800e5
:104f00008080eb00210098009e00780064804000c3
:104f1000800078001e007800310098009e00780024
:104f200064804000800078001e00780041009800f6
:104f30001e0078008000eb00010878000080fa0075
:044f40000000060067
:020000040000fa
:104f44000600fa00200798000000eb00000f78002c
:104f5400ae009000110798001e009000d000900051
:104f640000ce2100808f50000b003a001e009000fc
:104f7400a008900060cd2100808f50000600320010
:104f84001e009000200890000000e00002003a009b
:104f940010002000000f78001e0078000080fa0046
:044fa4000000060003
:020000040000fa
:104fa8000c00fa00100798002107980032079800b3
:104fb80043079800540798004001200077fd070038
:104fc800000f78001e0078000000e0000a003200a0
:104fd8001e0078008040eb00215098009e02780067
:104fe8005e029000ce0190003e019000ae0090005d
:104ff8001e0090000cfe07001e0078000080fa00da
:04500800000006009e
:020000040000fa
:10500c000600fa0010079800210798009e009000f7
:10501c00010f7800df0107002e0090000000e00077
:10502c00070032001e00780020509000804078006d
:10503c000124a0001e0078002150980006003700c3
:10504c001e00780020509000804078000124a100c0
:10505c001e00780021509800a40107000080fa007f
:04506c00000006003a
:020000040000fa
:105070000200fa00510107004d020700e4dc2200a3
:105080008001eb0012002000813e2000c074280047
:10509000c5ff070030428800c0742800000f780068
:1050a000304280009e007800140207007b02070057
:1050b00080007800304280000002eb008001eb00ad
:1050c000010178001100200081fc070085fe070027
:0450d000ffff3700a7
:020000040000fa
:1050d4000000fa006c000700e040800090077800b0
:1050e4004f007800604088003400f9003200f90075
:1050f4004400f9005400f9003600f9004f07780025
:105104004f06be004f05be004f04be004f03be0055
:105114004f02be004f01be004f00be004200f90026
:1051240000000600100020000080fa0000000600c5
:020000040000fa
:105134000400fa0010079800c041800010007800b5
:1051440000f0a7000000ea000000e9004f00de00c4
:105154009e009000800878001e00900010007800e7
:105164000000e00004003a00c041800030009000dc
:10517400100f7800020037000000eb00000f7800e9
:0c5184001e0078000080fa000000060009
:020000040000fa
:105190000400fa00100798000000eb00000f7800f0
:1051a0001e0090000000e000060032006a020700c6
:1051b0008000eb001e00900017fc0700c0f5070000
:1051c000000f78001e0078000000e00003003a00a5
:1051d0002823020000000000000000000080fa0008
:0451e00000000600c5
:020000040000fa
:1051e4000400fa00100798002b020700000f780053
:1051f400004280009e007800808f5000050031003e
:10520400b0f807001e00900011002000010878008b
:10521400030037001e0090008000eb0001087800b6
:105224009e007800014288001e0078000080fa0089
:045234000000060070
:020000040000fa
:105238000000fa0058010700e04180000000e0008b
:105248000d003a00a0ce210023ff070040cf210027
:1052580021ff0700a0ce2100c041880040cf2100d7
:10526800d04188000041eb0061002000400120008f
:1052780058fe0700e04188001d0107000080fa0081
:04528800000006001c
:020000040000fa
:10528c000400fa00f07c200001002000008fbe001a
:10529c009421ef009021ef001e007800900c880004
:1052ac0041058000f0ff28000080600000c0a000d5
:1052bc00400588008860a9009860a8009481a80027
:1052cc0094a1a90095e1a8000080fa000000060056
:020000040000fa
:1052dc000600fa0020079800ae0090001107980015
:1052ec002c0107001e009000205090000080fb0055
:1052fc00640060000000e00003003a000000eb00d6
:10530c00000f78000200370010002000000f78001a
:10531c00f60007001e0078000080fa00000006006e
:020000040000fa
:10532c000600fa0020079800ae00900011079800c4
:10533c00180107001e009000205090000080fb0018
:10534c00610060000000e00003003a000000eb0088
:10535c00000f78000200370010002000000f7800ca
:10536c00e20007001e0078000080fa000000060032
:020000040000fa
:10537c000600fa00000f7800110798002207980029
:10538c00e04080006c004000800078001e00780037
:10539c00f1fd07002e0090000000e000020032003a
:1053ac000080eb0010079800ae0090001e009000eb
:0c53bc0096fb07000080fa0000000600cd
:020000040000fa
:1053c8000400fa0010079800f30007001e00900080
:1053d800e00890001e00900070089000808f500038
:1053e80003003a0010002000000f78000200370088
:1053f8000000eb00000f7800bd0007001e007800d9
