:020000040000fa
:080000000001040000000000f3
:020000040000fa
:04000800f202000000
:020000040000fa
:04000c00f2020000fc
:020000040000fa
:04001000f2020000f8
:020000040000fa
:04001400f2020000f4
:020000040000fa
:04001800f2020000f0
:020000040000fa
:04001c00f2020000ec
:020000040000fa
:04002000f2020000e8
:020000040000fa
:04002400f2020000e4
:020000040000fa
:04002800f2020000e0
:020000040000fa
:04002c00f2020000dc
:020000040000fa
:04003000f2020000d8
:020000040000fa
:0400340018020000ae
:020000040000fa
:04003800f2020000d0
:020000040000fa
:04003c00f2020000cc
:020000040000fa
:04004000f2020000c8
:020000040000fa
:04004400f2020000c4
:020000040000fa
:04004800f2020000c0
:020000040000fa
:04004c00f2020000bc
:020000040000fa
:04005000f2020000b8
:020000040000fa
:04005400f2020000b4
:020000040000fa
:04005800f2020000b0
:020000040000fa
:04005c00500200004e
:020000040000fa
:04006000f2020000a8
:020000040000fa
:04006400f2020000a4
:020000040000fa
:04006800f2020000a0
:020000040000fa
:04006c00f20200009c
:020000040000fa
:04007000f202000098
:020000040000fa
:04007400f202000094
:020000040000fa
:04007800f202000090
:020000040000fa
:04007c00f20200008c
:020000040000fa
:04008000f202000088
:020000040000fa
:04008400f202000084
:020000040000fa
:04008800f202000080
:020000040000fa
:04008c00f20200007c
:020000040000fa
:04009000f202000078
:020000040000fa
:04009400f202000074
:020000040000fa
:04009800f202000070
:020000040000fa
:04009c00f20200006c
:020000040000fa
:0400a000f202000068
:020000040000fa
:0400a400f202000064
:020000040000fa
:0400a800f202000060
:020000040000fa
:0400ac00f20200005c
:020000040000fa
:0400b000f202000058
:020000040000fa
:0400b400f202000054
:020000040000fa
:0400b800f202000050
:020000040000fa
:0400bc00f20200004c
:020000040000fa
:0400c000f202000048
:020000040000fa
:0400c400f202000044
:020000040000fa
:0400c800f202000040
:020000040000fa
:0400cc00f20200003c
:020000040000fa
:0400d000f202000038
:020000040000fa
:0400d400f202000034
:020000040000fa
:0400d800f202000030
:020000040000fa
:0400dc00f20200002c
:020000040000fa
:0400e000f202000028
:020000040000fa
:0400e400f202000024
:020000040000fa
:0400e800f202000020
:020000040000fa
:0400ec00f20200001c
:020000040000fa
:0400f000f202000018
:020000040000fa
:0400f400f202000014
:020000040000fa
:0400f800f202000010
:020000040000fa
:0400fc00f20200000c
:020000040000fa
:04010000f202000007
:020000040000fa
:04010400f202000003
:020000040000fa
:04010800f2020000ff
:020000040000fa
:04010c00f2020000fb
:020000040000fa
:04011000f2020000f7
:020000040000fa
:04011400f2020000f3
:020000040000fa
:04011800f2020000ef
:020000040000fa
:04011c00f2020000eb
:020000040000fa
:04012000f2020000e7
:020000040000fa
:04012400f2020000e3
:020000040000fa
:04012800f2020000df
:020000040000fa
:04012c00f2020000db
:020000040000fa
:04013000f2020000d7
:020000040000fa
:04013400f2020000d3
:020000040000fa
:04013800f2020000cf
:020000040000fa
:04013c00f2020000cb
:020000040000fa
:04014000f2020000c7
:020000040000fa
:04014400f2020000c3
:020000040000fa
:04014800f2020000bf
:020000040000fa
:04014c00f2020000bb
:020000040000fa
:04015000f2020000b7
:020000040000fa
:04015400f2020000b3
:020000040000fa
:04015800f2020000af
:020000040000fa
:04015c00f2020000ab
:020000040000fa
:04016000f2020000a7
:020000040000fa
:04016400f2020000a3
:020000040000fa
:04016800f20200009f
:020000040000fa
:04016c00f20200009b
:020000040000fa
:04017000f202000097
:020000040000fa
:04017400f202000093
:020000040000fa
:04017800f20200008f
:020000040000fa
:04017c00f20200008b
:020000040000fa
:04018000f202000087
:020000040000fa
:04018400f202000083
:020000040000fa
:04018800f20200007f
:020000040000fa
:04018c00f20200007b
:020000040000fa
:04019000f202000077
:020000040000fa
:04019400f202000073
:020000040000fa
:04019800f20200006f
:020000040000fa
:04019c00f20200006b
:020000040000fa
:0401a000f202000067
:020000040000fa
:0401a400f202000063
:020000040000fa
:0401a800f20200005f
:020000040000fa
:0401ac00f20200005b
:020000040000fa
:0401b000f202000057
:020000040000fa
:0401b400f202000053
:020000040000fa
:0401b800f20200004f
:020000040000fa
:0401bc00f20200004b
:020000040000fa
:0401c000f202000047
:020000040000fa
:0401c400f202000043
:020000040000fa
:0401c800f20200003f
:020000040000fa
:0401cc00f20200003b
:020000040000fa
:0401d000f202000037
:020000040000fa
:0401d400f202000033
:020000040000fa
:0401d800f20200002f
:020000040000fa
:0401dc00f20200002b
:020000040000fa
:0401e000f202000027
:020000040000fa
:0401e400f202000023
:020000040000fa
:0401e800f20200001f
:020000040000fa
:0401ec00f20200001b
:020000040000fa
:0401f000f202000017
:020000040000fa
:0401f400f202000013
:020000040000fa
:0401f800f20200000f
:020000040000fa
:0401fc00f20200000b
:020000040000fa
:100200002fd021000eff27000e0188000000000003
:10021000000020000000e000020032000001200089
:100220002002880014000700f00007000000e00032
:1002300003003a0040762000010020000200370051
:100240000000200001002000810f7000010032003a
:1002500014000700000020000000e000020032004f
:100260000000020000000000082e02000000000054
:100270000040da000000fe004440a90060052000b4
:100280000000e00003003200002020009001880000
:100290004440a800000006008a1f78008b1f7800e9
:1002a00000000600a1028800800478000000eb0036
:1002b0001f003700e284440054a0b4009905ba003e
:1002c000e284440054a0b4009906ba00e2844400d9
:1002d00054a0b4000006eb00476fde00fd07b2003b
:1002e000ae018800636ce10003003a00eaff0700fa
:1002f0000000eb000e003700606ce10008003a00df
:10030000004deb000a05e800020039003420ec0043
:100310000af0a0008b05e900f9ff3e000400370059
:100320006168e100010032000086eb000b0007006d
:1003300019c7ba001905ba000e04e00003003a001c
:100340000a00e000dbff3a0000000600fe07b200f2
:10035000ae0288008a047800f5ff37000cd0a300b5
:10036000e20f4d001c00390089027800354dba00bb
:100370000a05e800020039003420ec000af0a00071
:100380008b05e9000f003200254dba000a05e80090
:10039000020039003420ec000af0a0008b05e900cf
:1003a000080032000c00e0000600320015cdba0053
:1003b0000a05e800020039003420ec000af0a00031
:1003c0008b05e9008984e80054a0b4000b00e0002c
:1003d000e2ff3a00000006009902ba00055d7800cd
:1003e0008b05e900f7ff3200c82ade00055d7800c2
:1003f0008b05e900f3ff32000c00e000f1ff320052
:1004000019ddba00eeff3700e62c04000000000002
:10041000fc2c040000000000122e0400000000006c
:100420007828040000000000062b040000000000f3
:100430003600f800809fbe00829fbe00849fbe00f1
:10044000869fbe003200f8003400f8001000200043
:10045000a001880000202000900188000000fa0020
:100460008860a9001f0507000000e00003003200bb
:100470002823020000000000000000000080fa00b5
:100480003400f9003200f9004f03be004f02be00f5
:100490004f01be004f00be003600f90000400600cc
:1004a0003600f800809fbe00829fbe00849fbe0081
:1004b000869fbe003200f8003400f80010002000d3
:1004c000a001880000202000900188000a00fa00a6
:1004d00089a0a90030428000e70f50000c003400d2
:1004e00035020700710020000101780011000900a9
:1004f0000200d8008000fd00c200dd0020c72100fe
:1005000000804000301f7800201778000800370076
:10051000304280004201dd0021c7210081004100fe
:10052000311f7800211778000000e8003042880071
:1005300002802400536524001e00be0062010700f3
:10054000020020000313240087000700cc000700ee
:10055000200798002e009000cf80de0004010700e5
:1005600072d12100b34924007f0007002040880099
:10057000314088002040800031408000020020008f
:10058000a33724007800070030079800410798003f
:1005900002002000a34724003e009000ce009000ff
:1005a0004901070000408800114088002042800077
:1005b0008001eb000001eb00018020005a040700dd
:1005c0000080fa003400f9003200f9004f03be0049
:1005d0004f02be004f01be004f00be003600f900c2
:1005e000004006000040da000000fe0000000500a8
:1005f00003f0a200889fbe008a9fbe008c1f780077
:1006000019010700200133006450e1004f0032005f
:100610006420e1005200320003826c0007003b00be
:100620000905d0000306d000820f54000c065d00bf
:1006300002003900020032008901780003067800c8
:100640008582550004003d000003fd008103fd008c
:100650008502ea008b854200840f720002003b0095
:1006600060001000e08018006011b8000005eb0089
:100670007a28e1000a00390006007800c75ddd0035
:10068000f707b200878075002d0037008281710066
:100690000a017800610560008180d1000080d300ec
:1006a0008502e900f9ff3b0006044000878448000a
:1006b00002003b0060041400e0841c000988a300d1
:1006c000070032008a81710082817100610164003b
:1006d0008904d1000884d3008b05e8001700370097
:1006e0000978a30013003a000b00e0001300340067
:1006f0008b05e9000804440089844c000a44740016
:100700000978a3000d003a000b00e0000700340058
:100710008b05e9000804440089844c0001003a007c
:100720000b0020000978a300f7ff32000001eb0066
:1007300002003700828171000a0178008f000700f3
:100740000cf0a70001f0a000d80037006420e10001
:1007500002003a00838f6c00d80033000801be000d
:100760000200be00d1003700889fbe008a9fbe00f5
:100770008c1f7800bc000700c300330003866c00a8
:100780006450e1002e0032006420e10033003200aa
:100790006150e1002f0032006120e10031003200a1
:1007a00085855500eb07b0000900200008042000f3
:1007b000050037000804440089844c000a00310019
:1007c0000603430087834b000001530081815b00d7
:1007d000f8ff33000203be000800a0000804440034
:1007e00089844c00f6ff3900c639dd0083017300af
:1007f00001003200130020008904d1000884d300d6
:100800000998a300050032000800a7000300a0001b
:100810008904d1000884d3008b05e8008904d10045
:100820000884d3000001eb000281d20053000700ce
:1008300001f0a1000cf0a70001f0a0009b00370020
:100840006420e1009d0032000801be000200be00ed
:10085000f7ff37006120e100980032006000b80027
:10086000f3ff37000000200001f82700f0ff3700f9
:1008700014002000c8003700f4ff2f00c600370026
:100880000001be00630007000470a70003f0a10090
:100890006509b100160032000d0035006828e1003e
:1008a00006003500f0ff2f00f1ff27000300e000f5
:1008b00013003b000100280000000500000040007c
:1008c000818048008502e900fcff3a0008003700fb
:1008d000f88f420002003c008000eb0000000500a1
:1008e0008100d1000080d3008502e800fcff3a00bf
:1008f0000300e00002003b0060001000e0801800f0
:10090000000006000001be00420007000470a700be
:1009100003f0a10003f8a30013003a006509b10039
:1009200010003200090035006928e100020035009e
:100930000100280000000500000040008180480000
:100940008502e900fcff3a0000000600f88f420033
:10095000050035008100d1000080d3008502e80049
:10096000fcff3a00000006008000eb0000000500dc
:100970004f89de0082017800a2003700810020004c
:10098000618055000b003d000b00200061fe2f0030
:100990000100e1001d0034008281710061016400ea
:1009a0008904d1000884d3000000e800faff3a006f
:1009b000710020006100640003007000020060000c
:1009c0000900320061044400e0844c000988a5005d
:1009d000050032008b05e8006808e10002003a00db
:1009e0008904d1000884d300f20f20000258e100ee
:1009f00005003d00c75ddd00f907b2008980750084
:100a000008007800000006000bf827008b00780033
:100a100000000500c70ade00f107b200f50fb200c2
:100a200008003200e1cf4200020032000170a00055
:100a300024000500810f7000010032000408050049
:100a400044000500810f700002003a001400050008
:100a50008502e9000000400081c04800fcff3b0027
:100a60000170a000240005000004be00e9ff07009b
:100a70000003be000405be000200be00e5ff070043
:100a8000844f7500000006000200be006450e100c3
:100a9000050036006420e100020036000968a3006a
:100aa00001003a000800be000160a0004f06780077
:100ab0004f05be004f04be0000000600f0ff2f00ef
:100ac000f1ff2700f9ff3700889fbe008a9fbe0014
:100ad0008c1f7800e4ff0700ebff330003866c00f7
:100ae0006450e100240032006420e100270032005d
:100af0006150e100220032006120e100210032005b
:100b00008b854200eb07b1000134b800003ab80011
:100b10000804420089844a00013ab8000030b80055
:100b20008880400009014a000400330000004000b2
:100b300081804800020149008b05e900c909dd00f8
:100b4000830170000100320013002000c814de0091
:100b50004814dd004709de001200b200c808de00bc
:100b60000884700085ff070001f0a1000cf0a700c9
:100b700001f0a000cdff37006120e100cfff32007f
:100b80000801be000200be00f7ff37006150e1001f
:100b9000fcff3a00c9ff3700889fbe008a9fbe0055
:100ba000841f7800b0ff07004f0078001100330069
:100bb000f0ff2f00838f6c0006003b0004056500ea
:100bc0000a00a7000800370009f0a6001000200066
:100bd00008003700820f5400838f5c000300390047
:100be0001000200001003e000000200009f0a700d6
:100bf0000000ea004f05be004f04be000000e00008
:100c000000000600881f7800030478000300e0005d
:100c100007003d0060001000e0801800600119002e
:100c2000e081190002003b0001f02d0003003700b5
:100c30000400070008f0a70001f0a0004f047800ae
:100c400000000600889fbe008a9fbe0000827000e0
:100c50000402710004827100260032000004be000c
:100c60000200be006011b8006b0920009502200050
:100c70000182cf000a0039000541b1000082cf0097
:100c8000070039000541b1000982cf000400390096
:100c90000541b1000882cf00010039000541b100d3
:100ca00005425200120032000a003b0082817100ae
:100cb000610164008100d1000080d3008984d300e9
:100cc0000884d3008b05e8000442e800f7ff3a00ef
:100cd000070037000804440089844c0000004800e5
:100ce000818048008b05e9000442e900f9ff3a00e1
:100cf00022ff07004f05be004f04be0000000600a3
:100d0000e68747008e1f7800d0bf9f00e1bf9f009d
:100d10000e0037005fba970014407800efb99700d3
:100d2000934078000201e900814f50000400320036
:100d30000080fb008180fb000100500006003700ae
:100d400066875700041fe800030fe8000200e00078
:100d5000f0ff3a000000eb004f0778006f00b10091
:100d6000000006008001780002003700b1597800c9
:100d70000201e9000200e000fcff3a00000006006a
:100d80008001780002003700815978000201e900f3
:100d90000200e000fcff3a00000006008000eb00cb
:100da000f0e7880001e8880011c0b300c0cf21003f
:100db0000148780000000600c0cf21001004e000c8
:100dc00002003a0010002000f4ff0700d2e62400e1
:100dd000631c2400f0e7800001e8800009000700a0
:100de000920323000300200000014100818149009b
:100df000f2e7880003e888000300780000f0a10013
:100e000000000600020ab900001bb9000200b80089
:0c0e100081004200810043000000060049
:020000040000fa
:100e1c001111000022220000333300004444000072
:100e2c005555000066660000777700008888000042
:100e3c0099990000aaaa0000bbbb0000cccc000012
:100e4c00dddd0000eeee0000cecd0000acab00000e
:100e5c00494400004c45000000a50000a5a5000079
:100e6c00a5a50000a5a50000a5a50000a5a500004e
:100e7c00a5a50000a5a50000a5a50000a5a500003e
:100e8c00a50000004164000063540000696d00007f
:100e9c0065720000000000005265000063650000f0
:100eac00697600006572000000000000546d0000bf
:0c0ebc007220000053760000630000006c
:020000040000fa
:100ec800080800000200000082000000ef00000097
:100ed8008e1c00001400000080000000a21c00000e
:100ee8000a00000080000000ac1c00000a0000009e
:100ef800800000000a0800000200000080000000d6
:100f08000c0800000200000080000000b61c000071
:100f18000a000000800000000e0800000200000027
:100f2800800000001008000002000000800000009f
:100f380012080000020000008000000014080000f1
:100f480002000000800000001608000002000000f7
:100f58008000000018080000020000008000000067
:100f68004a1c00002800000080000000c01c00008f
:100f78000a00000080000000ca1c00000a000000ef
:100f8800800000001a080000020000008000000035
:100f98001c0800000200000080000000d41c0000b3
:100fa8000a00000080000000de1c00000a000000ab
:100fb800800000001e080000020000008000000001
:100fc8002008000002000000800000002208000045
:100fd8000200000080000000240800000200000059
:100fe80080000000260800000200000080000000c9
:100ff8002808000002000000800000002a08000005
:1010080002000000800000002c0800000200000020
:10101800800000002e080000020000008000000090
:1010280030080000020000008000000032080000c4
:101038000200000080000000e81c00000a00000018
:1010480080000000f21c00000a0000008000000080
:10105800340800000200000080000000360800008c
:1010680002000000800000003808000002000000b4
:10107800800000003a080000020000008000000024
:101088003c08000002000000800000004a08000040
:1010980000140000800000003e080000020000006c
:1010a80080000000400800000200000080000000ee
:1010b8004208000002000000800000004408000010
:1010c8000200000080000000460800000200000046
:1010d80080000000721c00001c000000820000005c
:1010e8000000000000000000003f000000803f00fa
:1010f8000000c0003f000000004000000020400049
:10110800000040004000000000080000040000004b
:1011180080000000040800000400000080000000b7
:10112800480800000200000080000000fc1c0000cd
:0c11380006000000800000000000000025
:020000040000fa
:101144001400fa00400798005207980063079800bb
:1011540071079800040f9800150f980010002000e4
:10116400000f7800ce009000110798000000eb00fb
:10117400200798000e0890000000e00005003200ef
:101184001e00900090109000001090000e09900036
:101194000089be001e0090004061900062479800e4
:1011a4001e00900021c0b300416098007e009000b2
:1011b400e20f500017003200e20f500005003e001d
:1011c4000000e0002e003200e10f50000600320063
:1011d4002c003700e30f500017003200e40f5000da
:1011e4001b003200270037001e0090000011900001
:1011f400901190005e009000ee00900000007100dd
:10120400818071001e019000001198001111980056
:101214001c0037001e0090009010900000109000f9
:1012240061004000e08048001e0190000011980019
:1012340011119800130037001e0090005e01900009
:10124400ee01900002109800131098000d00370072
:101254006e409000e24f5000060032001e009000e5
:101264005e019000ee0190000210980013109800a7
:10127400040037000000eb00000f78000100370085
:10128400000000006e409000e14f50002c003a0036
:10129400904180000000e00016003a001e0090001b
:1012a4000080e8003d0d07001e009000b00890008b
:1012b40010418000808f5000030036001e00900013
:1012c40030089000104188001e0090000081e80062
:1012d4001e009000300890006a00b9008000780079
:1012e400a0c4210000804000820078003c0e07006a
:1012f400050037001e0090006c004000800078005c
:1013040040cd2100360e07001e009000b00890006a
:10131400c040800030089000808f500008003600e4
:101324001e0890000000e000030032001e08900038
:1013340011002000010878001000200040418800be
:0c1344001e0078000080fa000000060087
:020000040000fa
:101350000e00fa00780037003e0090000000e00028
:1013600075003500de009000010f78001e00780047
:10137000500090000000e000020032001e80e800f3
:10138000070d07006c004700cd0f070010079800fd
:101390003e009000e50f500052003200e50f500073
:1013a00007003c00e30f500034003200e30f500010
:1013b00039003c000000e0005a003500070037000b
:1013c000e80f50002d003200e80f500003003500f8
:1013d000e90f500030003200570037001e0078003f
:1013e00020509000804078000104a0001e0078008a
:1013f00021509800ce0090004e0190001e00780011
:101400006000900000004100810178001e01900002
:10141000800078001e007800ee0a07000000e0005f
:10142000420032001e007800800890001e00780004
:10143000010001001e007800205090000080fb0099
:10144000640060000000e0003a003200ce0090002e
:101450001e00780060009000008040000002eb0059
:101460008001eb00000178008000eb001e00780096
:10147000970b0700200798002f0037001e00780008
:1014800020509000804078000104a1001e007800e8
:1014900021509800280037001e007800205090004e
:1014a000804078000104a0001e00780021509800c0
:1014b000ce0090001e007800610098001e007800a9
:1014c000e00090001e009000008040009e0190000f
:1014d0001e019000800078001e007800bd0a070001
:1014e000150037001e007800205090000080fb009f
:1014f000620060000000e00003003a001e00780077
:10150000d91107000c0037001e0078002050900011
:10151000804078000104a1001e007800215098004e
:101520000500370000000000030037000000000045
:101530000100370000000000c0418000e6004700c5
:101540000001eb00310207000000e00082ff3a00da
:081550000080fa000000060013
:020000040000fa
:101558001000fa00300798004207980053079800d7
:10156800610798007407980010002000000f7800a9
:10157800be00900011079800af1007007e00900091
:101588000000e000050032001e009000901090005e
:10159800001090007e0190000089be001e0090009f
:1015a80040619000424798001e00900021c0b3009f
:1015b800416098006e009000e20f50001700320062
:1015c800e20f500005003e000000e0002e0032004f
:1015d800e10f5000060032002c003700e30f5000e6
:1015e80017003200e40f50001b00320027003700bc
:1015f8001e00900000119000901190004e00900085
:10160800de00900000007100818071001e019000d2
:1016180000119800111198001c0037001e0090005e
:10162800901090000010900061004000e080480099
:101638001e01900000119800111198001300370046
:101648001e0090004e019000de01900002109800ec
:10165800131098000d0037004e409000e24f5000e4
:10166800060032001e0090004e019000de0190003e
:101678000210980013109800040037000000eb00d7
:10168800000f780001003700000000004e40900075
:10169800e14f50001e003a001e0090000080e80054
:1016a8003d0c07001e009000b0089000104180001b
:1016b800808f5000030036001e0090003008900014
:1016c800104188001e0090000081e8001e00900074
:1016d800300890006a00b90080007800a0c421009a
:1016e80000804000820078003c0d07001e0090003a
:1016f800b0089000c040800030089000808f5000f3
:10170800030036002823020000000000000000004b
:101718001f1007001e0078000080fa000000060075
:020000040000fa
:101728001200fa00500798006107980072079800a5
:10173800030f98000000eb00000f7800de00900017
:101748001107980001003700000000003a10070058
:101758001e009000e00890001e00900070089000a5
:10176800808f5000030039000e089000e20f5000ef
:101778001b003a000e099000ee0090001e00900039
:10178800a0040700200798001e0090001008900091
:101798000000e000090032001e00900072004000c6
:1017a800610807000000e0000a0032002823020058
:1017b8000000000000000000060037002e00900026
:1017c8000000e000030032002823020000000000af
:1017d80000000000ee0f0700100020003d00370059
:1017e8007e0090000000e00003003a00e80f0700c8
:1017f8000000eb00370037001e0078000000e00012
:1018080004003a0066004700a310070010002000fb
:10181800000f7800de0f0700ea1007000610070027
:101828001e00900020609000e14f400003003a0045
:101838001e0090008040eb00216098001e00900080
:1018480030609000e14f400003003a001e00900015
:101858008040eb0031609800cd0f0700ee00470094
:1018680066004700f80707000000e00015003a008e
:101878001e009000090f07000000e0000d00320074
:10188800fe0090001e009000680040000410070051
:101898001e009000b4070700050407000000e000e0
:1018a800a9ff3a0028230200000000000000000001
:1018b800a6ff37001e009000ab070700fc030700d7
:1018c800a2ff37001e009000a7070700f8030700d3
:0c18d8000000eb000080fa000000060099
:020000040000fa
:1018e4000a00fa000000eb00000f7800904180002d
:1018f4000000e00063003a00004180000000e800be
:10190400100798009e009000014188001e0090007e
:101914000000e0000a003a00d1408000210798004e
:10192400e0408000d0408800ae009000e140880094
:10193400504180000000e80050418800440f070037
:10194400704180009e009000808f50003c00390060
:101954000100370000000000d04080001000780033
:101964000000e00003003a000080eb0070418800b2
:1019740033003700d04080003000900030009000e9
:10198400300798003e0090009000900041079800b6
:101994009e0090004e009000808f500003003100a4
:1019a400ce00900071418800250037003e00900071
:1019b4000080e800790b07003e00900020089000aa
:1019c4000000e000030032003e0090006c00400084
:1019d400720b07003e009000b00890001041800098
:1019e400808f5000030036003e00900030089000c5
:1019f400104188003e0090000081e8003e00900005
:101a0400300890006a00b90080007800a0c421006a
:101a14000080400082007800710c07003e009000b6
:101a2400b0089000c040800030089000808f5000c3
:101a3400c8ff390010002000000f7800c6ff3700ef
:101a4400c0408000300890006a00b900800078002f
:101a5400a0c421000080400010007800e10f500075
:101a64000200360010002000000f78004041800082
:101a74000000e0000600320010002000000f780093
:101a840003003700304180000000e8003041880046
:0c1a94001e0078000080fa000000060030
:020000040000fa
:101aa0001200fa006007980071079800020f980072
:101ab0000000eb00000f7800ee0090001107980086
:101ac00003003700000000000100370000000000a4
:101ad0005b0f07001e009000e008900021079800af
:101ae0002e0090000000e000180032001e00900060
:101af000b000900031079800fe0090001e0090009a
:101b0000b50b07001e009000be0090003100980049
:101b10001e009000100890000000e0000800320055
:101b20001e00900072004000810707000000e000e6
:101b30000300320028230200000000000000000023
:101b4000150f070010002000410037000e0890001c
:101b50000000e00003003a000f0f07000000eb0058
:101b60003b0037001e0078000000e00004003a004f
:101b700068004700ca0f070010002000000f78001f
:101b8000050f0700111007002d0f07001e00900021
:101b900020609000e14f400003003a001e009000da
:101ba0008040eb00216098001e00900030609000a3
:101bb000e14f400003003a001e0090008040eb001f
:101bc00031609800f40e0700f000470068004700fd
:101bd0001f0707000000e00015003a001e009000fb
:101be000be0e07000000e0000d0032008e089000dd
:101bf0001e009000720040002b0f07001e00900096
:101c0000db0607002c0307000000e000adff3a00f0
:101c1000282302000000000000000000acff370095
:101c20001e009000d206070023030700a8ff37001c
:101c30001e009000ce0607001f0307001e00900044
:101c4000a60e07000000e000a0ff32000000eb003d
:081c50000080fa00000006000c
:020000040000fa
:101c58000a00fa0020079800310798004207980008
:101c6800ae0090001107980011028000f0f12f00db
:101c7800008060000050a0001002880000000000f2
:101c8800000000001e009000600890000000e000c6
:101c980016003a004e0090000000e0000c003200f0
:101ca8001e00900072004000800078004e009000f6
:101cb800010b070011028000f0f12f000080600086
:101cc8001002880000000000c0ff2f004b00370002
:101cd80011028000f0f12f000080600010028800df
:101ce800000000000000eb004400370011028000f3
:101cf800f0f12f0000806000100288000000000052
:101d080011028000f0f12f00008060000050a00058
:101d18001002880000000000000000001e00900073
:101d2800600890000000e0002c0032001e009000c7
:101d3800b00090001e0090000010900080804000cd
:101d48001e009000310098001e009000b000900026
:101d58001e00900020009000808f50000400390081
:101d68001e009000900078001e009000310098003e
:101d78001e009000600890008000e9001e0090009e
:101d8800610898001e009000801090001e009000ce
:101d98003000900001017800800078003e0090003b
:101da800eefb070010002000000f78001e009000d6
:101db800400090000000e0000a0032001e00900081
:101dc80068004000c10b07000000e0000500320079
:101dd800b0ff2f00000f7800020037000000eb0072
:101de800000f780011028000f0f12f0000806000e1
:101df80010028800000000001e0078000080fa0031
:041e080000000600d0
:020000040000fa
:101e0c001000fa00500798006107980072079800bc
:101e1c000000eb00000f7800de0090001107980026
:101e2c000300370000000000010037000000000034
:101e3c00800e07001e009000e0089000210798001b
:101e4c002e0090000000e00016003200ee00900022
:101e5c001e009000dd0a07002e0090008000e900b3
:101e6c001e009000610898001e0090004000900039
:101e7c000000e000080032001e00900068004000e6
:101e8c00a80607000000e00003003200282302002f
:101e9c0000000000000000003c0e070010002000b5
:101eac00410037007e0090000000e00003003a0083
:101ebc00360e07000000eb003b0037001e007800d8
:101ecc000000e00004003a0066004700f10e070035
:101edc0010002000000f78002c0e0700380f0700b0
:101eec00540e07001e00900020609000e14f40004f
:101efc0003003a001e0090008040eb002160980027
:101f0c001e00900030609000e14f400003003a004a
:101f1c001e0090008040eb00316098001b0e070003
:101f2c00ee00470066004700460607000000e00090
:101f3c0015003a001e009000e50d07000000e000bf
:101f4c000d003200fe0090001e0090007200400058
:101f5c00520e07001e0090000206070053020700f5
:101f6c000000e000afff3a00282302000000000050
:101f7c0000000000aeff37001e009000f9050700be
:101f8c004a020700aaff37001e009000f505070063
:101f9c00460207001e009000cd0d07000000e00077
:101fac00a2ff32000000eb000080fa0000000600e7
:020000040000fa
:101fbc001400fa0020079800310798004207980097
:101fcc00530798006407980075079800060f98004f
:101fdc00170f98004e009000000040008000780021
:101fec001e0890004008900001017800510a200062
:101ffc0060fb07001e089000c008900011079800b5
:10200c001e089000c00890004e019000f0ff2700c1
:10201c000000410000004000808040001e0890003d
:10202c00710898003e0090000000e000190032009a
:10203c000000eb00000f78000d0037003e00900010
:10204c001e004000904078001e0890001e004000ca
:10205c007a004000014878003e0090001e004000cd
:10206c00104078000004e000050032001e0fe8006c
:10207c001e007800e30f5000f0ff3600010037001f
:10208c00000000001e0890008040eb0051589800a2
:10209c00030037001e0890008040eb002158980088
:1020ac007e009000e30f500002003600300020004c
:1020bc00700798001e089000fe00900031089800f0
:1020cc001e0890000080e800b60e07001e08900065
:1020dc006c004000b30e07001e0890009e08900094
:1020ec00410098007e009000e40010001e08900053
:1020fc00610098001e0890009e089000110898003e
:10210c001e0990006000b800001198001111980091
:10211c001e0890008040eb00416098006e0190001a
:10212c00ae0090001e00900088020700800078002e
:10213c001e089000010878000e0890000000e000d6
:10214c00030032000e0890009e08900001087800f1
:08215c000080fa0000000600fb
:020000040000fa
:102164000e00fa0050079800610798000000eb0089
:10217400000f7800de00900011079800030037007c
:10218400000000000100370000000000ab0d070054
:102194001e009000e0089000210798002e00900097
:1021a4000000e000130032002e0090008000e900df
:1021b4001e009000610898001e00900040009000ee
:1021c4000000e000080032001e009000680040009b
:1021d400d60507000000e0000300320028230200b7
:1021e40000000000000000006a0d0700100020003d
:1021f400410037006e0090000000e00003003a0048
:10220400640d07000000eb003b0037001e0078005f
:102214000000e00004003a00660047001f0e0700bb
:1022240010002000000f78005a0d0700660e07000a
:10223400820d07001e00900020609000e14f4000d6
:1022440003003a001e0090008040eb0021609800db
:102254001e00900030609000e14f400003003a00ff
:102264001e0090008040eb0031609800490d07008b
:10227400ec00470066004700740507000000e0001a
:1022840015003a001e009000130d07000000e00046
:102294000d003200ee0090001e009000720040001d
:1022a400800d07001e009000300507008101070023
:1022b4000000e000b2ff3a00282302000000000002
:1022c40000000000b1ff37001e0090002705070042
:1022d40078010700adff37001e00900023050700ba
:1022e400740107001e009000fb0c07000000e000d2
:1022f400a5ff32000000eb000080fa000000060099
:020000040000fa
:102304000c00fa0040079800510798000000eb0009
:10231400000f78005e009000e30f500002003600ca
:102324003000200050079800440d07004e00900034
:102334000000e00002003a00c040800001003700c5
:102344004e009000100798001e009000b008900006
:1023540021079800ae0090005e009000808f50002e
:1023640048003200de0090002e009000808f500064
:102374000c003600c04080009e009000808f50000a
:102384000e003200c0408000b00890005e00900053
:10239400808f500009003e0010002000000f7800dc
:1023a40006003700c04080009e009000808f5000df
:1023b40002003a0010002000000f78001e00900078
:1023c400b0089000310798001e009000de009000d5
:1023d400310898001e009000600090000000e000aa
:1023e400040035005e009000e40010001e00900020
:1023f400610098001e009000500190003e00900083
:102404006a00b90080007800a0c421000080400068
:10241400800f510015003a001e0090000080e80073
:10242400de0807001e009000b008900010418000f4
:10243400808f5000030036001e009000300890008a
:10244400104188001e0090000081e8001e009000ea
:10245400300890006a00b90080007800a0c4210010
:102464000080400082007800dd0907001e0078002b
:102474000000e000030032002823020000000000f6
:1024840000000000c30c07000080fa0000000600f2
:020000040000fa
:102494000e00fa00100798002107980032079800f0
:1024a400430798005407980065079800e30c070059
:1024b400c040800040609000e24f50002200320093
:1024c400c440800004119000941190001e009000fc
:1024d400ae0090000080ea008180ea008202780069
:1024e4000301780080017800010078008382620093
:1024f400000061008000eb00c000dd00000020004f
:102504000001be006128b8000001710081817100e2
:102514000212980013129800c040800011c0b3004a
:10252400416098006e0090000000e0000600320058
:10253400110020006e0090003607070028230200d7
:102544000000000000000000920c0700bb0c070014
:102554005e0090000000e00005003200c0408000f2
:1025640090109000001090005e0190000089be0061
:10257400c040800040609000e24f500003003200f1
:102584000000eb00000f780018003700c440800002
:1025940004119000941190003e009000ce00900031
:1025a4000080ea008180ea0082027800030178005a
:1025b40080017800010078008382620000006100dd
:1025c4008000eb00c000dd00000020000001be0020
:1025d4006128b80000017100818171000212980025
:1025e4001312980010002000000f7800c0408000f3
:1025f4008040eb0041609800660c07001e007800e4
:082604000080fa00000006004e
:020000040000fa
:10260c000400fa003f0d0700a140800001005000bb
:10261c00b040880049003700904080000000e8007e
:10262c0090408800b04080000000e900b040880075
:10263c00904080000000e00039003a0051408000da
:10264c00010f780060408000504088009e007800a8
:10265c00614088003300370050408000300090000b
:10266c0030009000100798001e0090009000900021
:10267c0090408000808f50002f003e00110280009f
:10268c00f0f12f00008060000050a00010028800c4
:10269c0000000000000000001e0090000080e80018
:1026ac003c0807001e009000200890000000e0008d
:1026bc00030032001e0090006c004000350807003b
:1026cc0011028000f0f12f000080600010028800e1
:1026dc00000000001e009000b008900080408000b8
:1026ec00808f5000030036001e00900030089000d0
:1026fc00804088001e0090000081e8001e009000c1
:10270c00300890006a00b90080007800e0c8210011
:10271c0000804000820078002f090700010037007c
:10272c000000000050408000100078000000e00025
:10273c00c9ff3a000100370000000000b0408000e3
:10274c000000e000b4ff3a0090408000a0408800f8
:08275c000080fa0000000600f5
:020000040000fa
:102764000a00fa00200798003107980042079800f1
:10277400ae0090001107980011028000f0f12f00c4
:10278400008060000050a0001002880000000000db
:10279400000000001e009000410b07000000e00054
:1027a400160032004e0090000000e0000c003200e1
:1027b4001e00900068004000800078004e009000e9
:1027c4003e08070011028000f0f12f000080600035
:1027d4001002880000000000c0ff2f003300370003
:1027e40011028000f0f12f000080600010028800c8
:1027f400000000000000eb002c00370011028000f4
:10280400f0f12f000080600010028800000000003a
:1028140011028000f0f12f00008060000050a00041
:102824001002880000000000000000001e0090005c
:10283400e00890001e00900070089000808f500007
:10284400120031000001eb00be0090001e00900059
:102854006d00070010002000000f78001e0090009b
:10286400100890000000e0000a0032001e009000f2
:1028740072004000160907000000e0000500320065
:10288400b0ff2f00000f7800020037000000eb00bb
:10289400000f780011028000f0f12f00008060002a
:1028a40010028800000000001e0078000080fa007a
:0428b400000006001a
:020000040000fa
:1028b8000600fa000000eb00000f78000000eb00b3
:1028c80010079800dc0b0700904180000000e90029
:1028d80090418800904180000000e00045003a00e7
:1028e800f04080000000e000420032002100370084
:1028f800d0e6800030009000000f78009e0078003d
:102908006c804000a40707001e80e800a2070700ab
:102918001e007800b008900010418000808f5000a1
:10292800030036001e00780030089000104188002f
:102938001e81e8001e007800300890006a00b90087
:1029480080007800a0c42100008040008200780048
:10295800a20807001e007800b0089000c040800060
:1029680030089000808f50000200390010002000cd
:1029780040418800a0e680000000e000dcff3a004b
:102988001e0078000000e000010032002f0b070055
:1029980031418000210798002e0090000000e000df
:1029a8000c003200cdfb07000000e00002003200fe
:1029b80010002000404188002e0090000000e9002f
:1029c800200798002e0090000000e000f5ff3a0074
:1029d8002628ef00404180000000e000050032009a
:1029e80010002000100798002823020000000000b3
:1029f80000000000660b07001e0090000080fa002f
:042a080000000600c4
:020000040000fa
:102a0c000a00fa0020079800310798004207980046
:102a1c000000eb00100798002e009000e0089000da
:102a2c00010f78002e009000001090000000e000d4
:102a3c00400032004e0090000000e00019003a0007
:102a4c002e009000801090002e009000100090003e
:102a5c0001017800be009000bff807002e00900026
:102a6c00900090002e00900000109000808040009c
:102a7c002e009000110098002e0090009000900005
:102a8c002e00900020009000808f5000290039000b
:102a9c002e009000900078002e00900011009800fd
:102aac00240037002e009000801090002e00900023
:102abc003000900001017800be009000a6f80700dd
:102acc002e009000b00090002e009000001090009e
:102adc000000ea00808040002e0090003100980039
:102aec002e009000b00090002e0090001000780096
:102afc00808f5000080031002e009000a000900044
:102b0c002e009000001090000000ea008080400031
:102b1c002e009000310098004e009000e20f500003
:102b2c0004003a001e0078000000e00001003200b2
:102b3c001e0fe9009e00e8002e009000610898002e
:0c2b4c001e0090000080fa00000006004f
:020000040000fa
:102b58002a00fa00201798003117980042179800a9
:102b6800e4004700e27028000f000900b21878005e
:102b7800be109000110798002e1090001e019000c2
:102b8800020878002e1090000080e80020179800b6
:102b98002e1090008000eb00010878002e109000a5
:102ba8000080e800201798002e1090008000eb00ad
:102bb800010878002e1090000080e8002017980087
:102bc800ce1090002e109000010878002e10900072
:102bd8000080e800201798000000eb00000f780044
:102be8000a0037001e00780000004000000047007f
:102bf800a00090002e109000010878002e10900080
:102c08000080e800201798001e0fe8001e007800da
:102c1800ef0f5000f3ff3600210280002e109000c5
:102c2800010878002e1090000080e8002017980016
:102c3800910180002e109000010878002e1090005d
:102c48000080e80020179800a10180002e10900055
:102c5800010878002e1090000080e80020179800e6
:102c68002e1090008000eb00010878002e109000d4
:102c78000080e800201798002e1090000080fa00cd
:042c88000000060042
:020000040000fa
:102c8c000a00fa00200798003107980042079800c4
:102c9c00c001200040060700100798001e0090009d
:102cac000000e0003c003200704080000000e000ba
:102cbc0003003a009e0090007140880071080700e4
:102ccc003e009000e10f5000020036001000200082
:102cdc00300798001e0090008000eb00510898000f
:102cec001e009000be009000310898001e0090005d
:102cfc00ce009000410898001e009000ae0090009d
:102d0c00010878001e0090000080e800a50b070069
:102d1c001e0090006c004000a20b07001e009000eb
:102d2c009e009000410098001e0090009e009000b4
:102d3c00110898003e009000e20010001e00900068
:102d4c00610098001e009000b00890008040800048
:102d5c00808f5000030036001e0090003008900059
:102d6c00804088001e0090000081e8001e0090004a
:102d7c00300890006a00b90080007800e0c821009b
:102d8c0000804000820078009307070010002000ac
:102d9c00000f7800020037000080eb00000f780075
:0c2dac001e0078000080fa000000060005
:020000040000fa
:102db8000600fa0010079800210798009e0090006e
:102dc800010f78009c0a07001e00780010017800a7
:102dd8001e007800f00890001e0078000010900097
:102de8000088b90000007800800041001e007800cb
:102df800210098001e0078008000eb006108980010
:102e08001e007800900078001e00780011009800dd
:102e18001e007800100178001e00780070089000ed
:102e28008000e9001e007800001090000088b900ba
:102e380000007800800041001e00780031009800f2
:102e48001e00780080c0eb00216098001e0078000a
:102e580080c0eb00316098002e0090000000e00078
:102e68000d003a001e007800400090000000e000cd
:102e78000f0032009e00780068804000aa02070018
:102e88000000e0000a0032002823020000000000d1
:102e980000000000060037009e00780068804000af
:102ea8002d0807009e007800728040002a0807005d
:102eb800370a0700100020000080fa000000060012
:020000040000fa
:102ec8000a00fa003007980041079800be009000f9
:102ed800010f78000000eb00100798001e00780032
:102ee800c0609000414798001e00780021c0b300e0
:102ef800416098001e00780090109000001090002b
:102f080061004000e08048001e0178000011980030
:102f1800111198004e409000e14f50002a003a00ed
:102f2800904180000000e00014003a001e80e80094
:102f3800190607001e007800b008900010418000b4
:102f4800808f5000030036001e0078003008900083
:102f5800104188001e81e8001e00780030089000ab
:102f68006a00b90080007800a0c4210000804000f9
:102f78008200780019070700050037009e007800d6
:102f88006c8040008000780040cd210013070700c6
:102f98001e007800b0089000c04080003008900003
:102fa800808f5000080036004e0090000000e000be
:102fb800030032004e009000110020000108780044
:102fc80010002000404188000080fa000000060040
:020000040000fa
:102fd8000600fa00904180000000e0000300320083
:102fe8001000200040418800390037002828ef00f1
:102ff800c040800070089000100798001e009000e4
:103008007400500010079800420120003173280016
:103018001e00900038f707000000e00004003200ae
:10302800c0408000fa004000c04080007b0a0700d2
:1030380011418000010f7800010037001e0fe900e0
:103048001e0078006a00b90080007800a0c4210042
:1030580000804000100078000000e000f7ff320018
:103068001e0078006a00b90080007800a0c4210022
:1030780000804000200798002e009000100090006b
:10308800900090002e009000110098002e009000f3
:10309800900090002e00900064004000808f500047
:1030a80005003a002e00900010009000900090005b
:1030b8002e009000110098002e0090001000900043
:1030c80030009000c04088009e00780011418800c0
:0830d8000080fa000000060070
:020000040000fa
:1030e0000a00fa002007980031079800420798006c
:1030f000ae009000110798001e009000600890003c
:103100000000e000310032001e009000b00090008e
:103110001e00900000109000808040001e00900073
:10312000310098001e009000b00090001e0090003a
:1031300020009000808f5000040039001e00900095
:10314000900078001e009000310098001e00900052
:10315000600890008000e9001e009000610898005f
:103160001e009000801090001e0090003000900023
:1031700001017800800078003e009000f9f6070019
:103180004e009000100078000000e0000c003a00b3
:103190001e009000400090000000e0000800320097
:1031a0001e00900068004000ca0607000000e00012
:1031b000030032004e00900011002000010878004a
:1031c00010002000000f7800020037000000eb0024
:1031d000000f78001e0078000080fa000000060052
:020000040000fa
:1031e0000200fa00000f780095090700f040800007
:1031f0000000e800f0408800c04080000000e000cf
:1032000007003a009e007800c1408800f04080002e
:10321000e10f50000d003a00e60607000b003700f2
:10322000204180000000e00008003a00c04080001b
:10323000b00890001e00780030089000808f500089
:1032400002003e009e007800c1408800604180007e
:103250000000e800604188001e007800b00890007f
:1032600010418000808f5000030036001e0078005f
:1032700030089000104188001e81e8001e00780090
:10328000300890006a00b90080007800a0c42100d6
:103290000080400082007800520607003e090700c7
:1032a000204180000000e00009003200c0408000a2
:1032b000b00890001e00780030089000808f500009
:1032c000030031002823020000000000000000007d
:0832d0000080fa000000060076
:020000040000fa
:1032d8000c00fa0040079800510798000000eb0026
:1032e800000f7800370a0700014180001107980095
:1032f8004e009000900078005e0090000080400032
:10330800200798004e009000900078001e00900062
:10331800808f50000c0036004e009000900078001e
:103328002e009000808f500012003600ae009000f2
:103338001e009000808f50000e0036001000200004
:10334800000f78000b0037004e00900090007800c6
:103358002e009000808f500004003e00ae009000c8
:103368001e009000808f50000200360010002000e0
:10337800000f78004e009000ae0090000108780021
:103388001e0078000000e00005003200ae0090004a
:103398001e009000008050008000eb009c03070096
:1033a80043fd0700300798003e0090000000e00051
:1033b80003003a002823020000000000000000007b
:0833c8000080fa00000006007d
:020000040000fa
:1033d0001200fa00500798006107980072079800e1
:1033e000030f9800de009000110798000000eb002a
:1033f000200798001e009000e00890001e0090003a
:1034000070089000808f5000030039000e08900073
:10341000e20f500025003a001e009000b0609000be
:10342000614798001e009000e00890004107980056
:103430000e099000ee0090001e00900073fd070042
:103440006e409000e14f400010003a001e009000d6
:10345000100890000000e000110032001e009000f3
:1034600072004000320107000000e0000c00320052
:103470007e0090000000e000090032007e00900015
:103480001100200001087800050037006e40900010
:103490000040e800804078001e00900031609800f5
:1034a00010002000000f7800020037000000eb0041
:1034b000000f78001e0078000080fa00000006006f
:020000040000fa
:1034c0000a00fa002d003700a04180003000900073
:1034d000100f7800a0418000300090003000900074
:1034e000100798001e0090000080e800ac04070060
:1034f0001e009000800890001e0090000100010056
:103500001e009000205090000080fb0064006000ce
:103510000000e000190032001e00900060009000e2
:103520001e004000200798002e0090009e0f5000c3
:103530000b0036001e009000ae00900011009800b5
:103540001e0090009e009000410098001e00900018
:103550008080e800a04180006c020700070037006f
:103560000002eb008001eb001e0178008000eb0000
:103570001e0090005603070030079800a04180000d
:10358000100078000000e000cfff3a00a141800069
:1035900041079800b0418000a0418800ce00900013
:0c35a000b14188000080fa000000060025
:020000040000fa
:1035ac000400fa0010079800a20807001e00900003
:1035bc000000e00002003a00c0408000010037002b
:1035cc001e009000000f78001e80e80071040700b8
:1035dc001e007800200890000000e000030032007c
:1035ec009e0078006c8040006a0407001e80e80092
:1035fc0080007800e0cd2100770507001e007800e0
:10360c0040609000e14f500003003a001e0078002b
:10361c008040eb00416098005c080700204180006e
:10362c000000e000030032008208070006080700d3
:10363c0056080700c04080009e007800808f500024
:10364c000e003a00204180000000e000040032002f
:10365c0028230200000000000000000007003700d3
:10366c00f1e68000f0408000808f500002003a00ac
:10367c001828ef000100370054fe07000080fa0004
:04368c000000060034
:020000040000fa
:103690001000fa0050079800610798007207980020
:1036a000de009000110798000000eb002007980052
:1036b0001e009000e0089000310798003e00900046
:1036c0000000e000250032001e009000a060900085
:1036d000014f9800ee0090001e009000be0407000d
:1036e0003e0090008000e9001e00900061089800f4
:1036f0000e489000e14f400010003a001e0090007c
:10370000400090000000e000110032001e00900018
:1037100068004000860007000000e0000c00320056
:103720007e0090000000e000090032007e00900062
:103730001100200001087800050037000e489000b5
:103740000040e800804078001e0090002160980052
:1037500010002000000f7800020037000000eb008e
:10376000000f78001e0078000080fa0000000600bc
:020000040000fa
:103770000400fa0010079800310807001e009000ae
:10378000b0609000014f78000b0037001e009000e1
:10379000100890000000e0000b0032001e009000b6
:1037a00072004000620007000000e00001003200eb
:1037b000120907001e4fe9001e4078000004e000d7
:1037c000f2ff3c0001003700000000001e009000e6
:1037d00080c0eb0031609800ef0707001808070071
:1037e0001e009000a0609000114798000d00370067
:1037f0001e009000400090000000e0000d0032002c
:103800001e00900068004000490007000000e00032
:1038100001003200f90807001e4090000040e90056
:10382000104798001e4090000004e000f0ff3c00ac
:1038300001003700000000001e00900080c0eb0077
:1038400021609800d40707000080fa0000000600fd
:020000040000fa
:103850000a00fa003007980041079800f8070700af
:1038600001418000110798003e0090001000900078
:103870009e00900000805000200798004e009000ad
:1038800010007800e10f400003003a000000eb0058
:10389000000f7800220037003e0090009000780072
:1038a00050418000808f5000080032003e009000a0
:1038b000900090001e009000808f500003003e009a
:1038c00010002000000f7800150037004e00900017
:1038d000900078002e009000808f50000b00360082
:1038e0004e009000900078002e00900080805000e4
:1038f0004e009000010878003e0090006808070024
:103900000000eb00000f7800050037004e0090002b
:103910008000eb000108780010002000000f780004
:103920009d0707001e0078000080fa0000000600d6
:020000040000fa
:103930000600fa00200798002e009000300090004a
:1039400030009000100798001e0090006c004000ae
:1039500093030700904180000000e00016003a0049
:103960001e0090000080e8008d0307001e009000fc
:10397000b008900010418000808f50000300360096
:103980001e00900030089000104188001e0090003a
:103990000081e8001e009000300890006a00b90025
:1039a00080007800a0c421000080400082007800e0
:1039b0008c040700050037001e0090006c004000da
:1039c0008000780040cd2100860407001e00900092
:1039d000b0089000c040800030089000808f5000f8
:1039e0000500360010002000000f780010002000b5
:1039f00040418800020037000000eb00000f780013
:0c3a00001e0078000080fa0000000600a4
:020000040000fa
:103a0c000200fa00b8020700fdfa070006003700b2
:103a1c00804080000000e0002c00320080408000dc
:103a2c000000e90080408800804080006a00b900f6
:103a3c0080007800e0c82100008040001000780071
:103a4c000000e000f2ff3200804080006a00b90004
:103a5c0080007800e0c82100008f40001e00780034
:103a6c0010009000900090001e007800110098004b
:103a7c001e007800900090001e0178006400410048
:103a8c00808f500005003a001e0078001000900056
:103a9c00900090001e007800110098001e00780025
:103aac001000900030009000704088007040800042
:103abc001001780070408000c008900070408000b9
:103acc0002000100000000000100370000000000af
:083adc000080fa000000060062
:020000040000fa
:103ae4000e00fa005007980061079800de0090006d
:103af400110798000000eb00200798001e009000ba
:103b0400e0089000310798001e009000f008900033
:103b14003e009000808f5000220036001e0090006e
:103b2400b0609000014f98003e0090008000e800d3
:103b34001e009000610898000e489000e14f40007c
:103b440010003a001e009000100890000000e000f1
:103b5400110032001e0090007200400073ff070045
:103b64000000e0000c0032006e0090000000e00055
:103b7400090032006e009000110020000108780056
:103b8400050037000e4890000040e80080407800af
:103b94001e0090003160980010002000000f780093
:103ba400020037000000eb00000f78001e007800d0
:083bb4000080fa000000060089
:020000040000fa
:103bbc000800fa0020079800310798001d0707003d
:103bcc00c04080009010900000109000e00f50005a
:103bdc00e08f58000c003a00c040800011c0b300c8
:103bec00416098003e0090000000e00006003200aa
:103bfc00110020003e0090008401070028230200e1
:103c0c000000000000000000e006070009070700a4
:103c1c00c04080000011900090119000028fbe00f7
:103c2c001e00be00e00f5000e08f58000f00320065
:103c3c002e0090000000e00005003200c240800021
:103c4c006000b800001198001111980007003700af
:103c5c00c24080000082eb008082eb003e004200fc
:103c6c00ae804a000011980011119800c0408000ed
:103c7c008040eb0041609800c40607001e00be00a7
:083c8c000080fa0000000600b0
:020000040000fa
:103c94001000fa00200798003107980042079800a6
:103ca4005307980064079800750798006002200085
:103cb4003b020700000f78001e0078000000e000bf
:103cc4000e0032004e009000000040003402070055
:103cd400800078001e007800410898001e007800db
:103ce400400890000000e00004003a001e00780044
:103cf400dc0707000000eb00000f78001e007800ce
:103d04000000e000120032004e0090008000eb0042
:103d14000001eb00821f78009e0378007e03900070
:103d2400ee0290005e0290000001be00be00900012
:103d34002e009000a0f807008f87e9001e0078008d
:103d440026fd07001000200010079800020037002d
:103d54000080eb00100798001e0090000080fa001d
:043d64000000060055
:020000040000fa
:103d68000800fa00300798000000eb00000f780008
:103d7800be009000110798000000eb002007980093
:103d88001e0090008d0407000000e00026003200ad
:103d9800904180000000e0001e003a001e009000e4
:103da800b0089000c040800030089000808f50001c
:103db8000200390010002000000f78001e0090005b
:103dc8000080e800740207001e009000b008900010
:103dd80010418000808f5000030036001e009000c4
:103de80030089000104188001e0090000081e80013
:103df8001e009000300890006a00b900800078002a
:103e0800a0c42100008040008200780073030700ee
:103e1800050037001e0090006c004000800078000c
:103e280040cd21006d0307001e0078000080fa00d5
:043e38000000060080
:020000040000fa
:103e3c000c00fa00881f7800400798005107980082
:103e4c000200200003f42b004e009000de009000d6
:103e5c001af3070002002000831a2400e2f1070085
:103e6c00008fbe0018c0b30002002000030824001d
:103e7c004e009000de0090007af207000000e00097
:103e8c00010035000044eb000804e0000b003a0090
:103e9c0018c0b30002002000031a24004e0090004a
:103eac00de00900071f207000000e00001003c0011
:103ebc000044eb000804e000030032000000200086
:103ecc0001002400008fbe0002002000a337240054
:103edc001e00be00f9f2070002002000a3472400d8
:103eec001ef2070020079800310798002e00900062
:103efc00be0090004f0478000080fa00000006001d
:020000040000fa
:103f0c000800fa0020079800310798003e00900046
:103f1c0090007800110798001e009000e10f4000ff
:103f2c0004003a002e009000c0009000010f7800b1
:103f3c000d0037002e00900064004000000f780048
:103f4c00030037001e00780090009000010f7800ed
:103f5c001e00780010009000900078001e00900069
:103f6c00808f5000f7ff36001e0078009000900004
:103f7c003e009000110098003e0090001000900050
:103f8c00be009000210098003e0090009e0078003a
:103f9c00210098001e007800be00900011009800cf
:103fac003e009000ae009000410098002e00900062
:103fbc00100078008000e8002e00900001087800c6
:083fcc000080fa00000006006d
:020000040000fa
:103fd4000a00fa0010079800210798003207980099
:103fe400430798000000eb00000f78001e009000cb
:103ff400ae009000110098001e0090009e009000fa
:1040040041009800ae0090003e009000808f500068
:104014000f003e00be0090004e00900080805000d3
:104024001e00900060009000808f50000300390053
:1040340010002000000f7800140037001e009000cc
:104044008080e800b0418000afff07000f00370018
:10405400be0090004e009000808f50000700310099
:10406400ae0090004e009000808f50000300390095
:1040740010002000000f7800040037001e0090009c
:104084008080e800a04180009fff07001e007800a8
:084094000080fa0000000600a4
:020000040000fa
:10409c000800fa002007980031079800c8060700ae
:1040ac000e80e80083040700000f78001e009000cb
:1040bc000000e00021003a003e0090000000e0000b
:1040cc0008003a002e0090009e0f500005003e00a4
:1040dc00f6f907009e0078002e009000a70007005c
:1040ec00190037003e0090000000e000070032008d
:1040fc00b04180001000780000f0a7000000ea003a
:10410c000000e9004f00de00300798002e00900000
:10411c009e005000c04180003e0190000802070044
:10412c00e2f907000000e00006003a002823020034
:10413c00000000000000000003003700dbf907005e
:10414c0001003700000000000080fa0000000600ab
:020000040000fa
:10415c000400fa00100798009e009000010f7800f0
:10416c00c04080009e007800808f500025003200f7
:10417c001e0078000000e00022003200ad050700b0
:10418c001e0078008c0307000000e0001c003200c9
:10419c001e80e8007f0107001e007800b008900028
:1041ac0010418000808f5000030036001e00780004
:1041bc0030089000104188001e81e8001e00780035
:1041cc00300890006a00b90080007800a0c421007b
:1041dc0000804000820078007f0207001e007800fb
:1041ec00b0089000c040800030089000808f5000d4
:1041fc00030039002823020000000000000000002a
:0c420c00620507000080fa0000000600b8
:020000040000fa
:104218000800fa0020079800310798000141800043
:10422800010f7800c04080000080e8005a010700b4
:104238002e009000e10f400009003a003e00900077
:104248000000e00006003200c04080000080e80066
:1042580080007800e0cd21006002070018003700d8
:104268002e0090001e00400010079800c0408000fb
:104278009e009000110098001e0090009e0f5000b4
:1042880005003100c04080008080e800e0408000e8
:104298001cff07000a003700c04080008080e8004b
:1042a800d040800017ff0700704180009e009000fa
:1042b800808f5000020031009e00900071418800fc
:0842c8000080fa00000006006e
:020000040000fa
:1042d0001200fa0040079800510798006207980002
:1042e00073079800040f98000000eb00000f78009f
:1042f000c04180000000e00020003200de0090009d
:1043000011079800ee00900021079800ce00900061
:10431000310798005e009000e50f500011003c004e
:1043200096040700e20f500007003a00c0418000e9
:104330008e80e8008001eb000e099000faf407007f
:10434000000f78000d003700c04180008e80e8002b
:104350008001eb000001eb00f3f40700000f780090
:1043600006003700c04180008e80e8008001eb002d
:104370007e01900016fc0700000f78001e007800f8
:084380000080fa0000000600b5
:020000040000fa
:104388000800fa002007980031079800a041800033
:104398003000900030009000000f78001e80e80088
:1043a800fd0007001e007800205090000080fb00f0
:1043b800640060000000e000130032001e00780076
:1043c800e00090002e00900000804000ae019000b8
:1043d8003e019000800078001e007800fbfe070078
:1043e8000000e0000e0032000002eb008001eb004c
:1043f8002e0190008000eb001e007800b2ff07003d
:1044080010079800060037001e0078002050900022
:10441800804078000104a1001e0078002150980017
:104428001e007800800890001e007800010001003e
:084438000080fa0000000600fc
:020000040000fa
:104440000c00fa00300798004207980053079800c4
:104450003e0090000000e00002003a00c0408000f2
:10446000010037003e009000000f7800f4040700c0
:10447000c040800000119000901190001207980039
:10448000230798001e007800001190009011900002
:104490004e009000de0090000080ea008180ea007b
:1044a00002027800030178008001780001007800a2
:1044b00003026200000061008000eb00c000dd002c
:1044c000000020000001be006120b8000001710062
:1044d000818171001e00780002109800131098006e
:1044e000ad0407001e009000ae0090000080fa00ae
:0444f00000000600c2
:020000040000fa
:1044f4000200fa002500370011028000f0f12f00bd
:10450400008060000050a00010028800000000003d
:1045140000000000e0e5800030009000000f78000b
:104524009e0078006c8040009c000700110280000f
:10453400f0f12f00008060001002880000000000ed
:104544001e80e800950007001e007800b008900067
:1045540080408000808f5000030036001e007800e9
:1045640030089000804088001e81e8001e0078001a
:10457400300890006a00b90080007800e0c821008b
:10458400008040008200780095010700b0e58000bb
:104594000000e000d8ff3a000080fa0000000600a6
:020000040000fa
:1045a4000400fa00100798000000eb00000f7800e8
:1045b4001e00900061006000004078000004e000ec
:1045c400040032001e0090000000a1000080e800fa
:1045d400100798007c050700004280000000e000fe
:1045e40003003a00c08420000000a10000428800bb
:1045f400f14180001e00900080804000d03f2100e7
:10460400808f50000d003e00f14180001e0090009c
:1046140080804000f0418000808f50000700360009
:1046240001428000f0418000008f4000f141800091
:104634001e00900000804000f04188009df80700b3
:0c4644001e0078000080fa000000060054
:020000040000fa
:104650004200f800801f780000022000100288004d
:10466000811f7800829fbe00849fbe00869fbe008f
:10467000889fbe008a9fbe008c9fbe008e1f780060
:104680003600f8005400f8004400f8003200f8004a
:104690003400f80040408000801f7800c040800057
:1046a0000f087800ec17020000000000c0408000f6
:1046b000900778004f007800404088003400f900ef
:1046c0003200f9004400f9005400f9003600f90006
:1046d0004f0778004f06be004f05be004f04be00d6
:1046e0004f03be004f02be004f01be004f00be0090
:0846f0004200f9000000060081
:020000040000fa
:1046f8000600fa0010079800210798002e00900085
:104708008000780001f0a0001e00900001087800e9
:104718001e00900030009000000f78001e009000ee
:104728001d0007001e80e8001b0007001e0078001f
:10473800b008900010418000808f500003003600c0
:104748001e00780030089000104188001e81e800a3
:104758001e007800300890006a00b90080007800d8
:10476800a0c4210000804000820078001b010700df
:104778001e007800b0089000c0408000300890000b
:10478800808f500002003600100020004041880051
:084798000080fa000000060099
:020000040000fa
:1047a0000400fa00100798001e009000c00090005e
:1047b000010f78001e009000100090009e009000f5
:1047c000a1009000210098001e00900020009000a1
:1047d0009e00900091009000110098001e0078004b
:1047e000900090001e009000808f500004003a005e
:1047f0001e009000a00090001e007800110098009c
:104800001e0090008000eb00410098001e00780020
:10481000100078008000e9001e0078000108780090
:104820001e007800100078000080fa0000000600ea
:020000040000fa
:104830000c00fa00000f780011079800220798007a
:104840003307980044079800550798005e009000d1
:104850000000e00018003200ae0207005e00900089
:104860001e0878005e0090009e0090006100980095
:104870005e009000be009000710098005e00900005
:10488000ce009000010898005e0090000080e800d3
:10489000c70407002e0090000000e0000600320070
:1048a0005e00900020509000804078000124a0001d
:1048b0005e009000215098000080fa000000060081
:020000040000fa
:1048c0000600fa0010079800210798009140800028
:1048d0001e009000008f4000704080000080e800c3
:1048e000afff0700704080009e0078001100980024
:1048f000904080009e007800808f500005003100bd
:10490000704080008080e800604080007ffd0700ec
:1049100004003700704080008080e8005040800034
:104920007afd07002e0090000000e0000500320034
:10493000704080006c004000800078002e009000e5
:0c49400072fd07000080fa000000060075
:020000040000fa
:10494c000800fa0010079800210798003207980019
:10495c009e009000010f7800b60307001e0078003f
:10496c0020609000e14f400003003a001e007800e8
:10497c008040eb00216098001e00780030609000b1
:10498c00e14f400003003a001e0078008040eb002d
:10499c00316098007d0307001e00780060089000cd
:1049ac000000e00005003a009e0078007280400094
:1049bc003e019000ae009000a40207001e0078009b
:0c49cc0068fb07000080fa0000000600f5
:020000040000fa
:1049d8000400fa00000f7800110798001e00780004
:1049e800001090000000e000190032001e0078005e
:1049f800b00090001e0078000010900080804000f9
:104a08001e007800310098001e007800b000900069
:104a18001e00780020009000808f500004003900ac
:104a28001e007800900078001e0078003100980081
:104a38001e007800801090001e0078003000900062
:104a480001017800800078001e009000c3f0070084
:084a58000080fa0000000600d6
:020000040000fa
:104a60000800fa0010079800210798003207980004
:104a70009e009000010f78001e007800e008900072
:104a80001e00780070089000808f500012003100e6
:104a90000001eb00ae0090001e007800dbf707007d
:104aa0003e0090000000e0000b003a001e0078007d
:104ab000100890000000e000070032009e0078001f
:104ac00072804000830007000000e0000200320016
:104ad00010002000010037003e0090000080fa0026
:044ae00000000600cc
:020000040000fa
:104ae4000200fa00058320000002eb008001eb00c5
:104af40032072000e172280060ce220064fc070027
:104b0400000f78001e007800e10f500002003a0008
:104b1400ab020700000f78001e007800e10f500080
:104b24000d003a0011028000f0f12f0000806000b7
:104b34000050a000100288000000000000000000e7
:104b44000080eb00704188001000200020418800a4
:104b54002028ef007e0107000080fa000000060014
:020000040000fa
:104b64000000fa0000202200303a88004827ef00b5
:104b74004a27ef004c27ef005027ef0089a0a90037
:104b840099a0a80047e7a8000041eb0041002000dd
:104b9400a0002000300007002042880024e1220009
:104ba4008001eb0012002000813e20008074280068
:104bb4001c01070010428800d4030700800078001d
:104bc400104280000002eb008001eb00010178003c
:104bd40011002000bdfd07000080fa00000006005f
:020000040000fa
:104be4000600fa0010079800210798001e009000a4
:104bf40090009000010f78002e0090009e00780035
:104c0400110098001e007800a00090002e00900073
:104c1400210098001e00780020009000ae00900053
:104c2400110098001e007800ae009000210098004a
:104c34002e0090009e009000410098001e009000fd
:104c4400100078008000e8001e0090000108780041
:084c54000080fa0000000600d8
:020000040000fa
:104c5c000c00fa003007980041079800224f98008a
:104c6c00be0090004e0090000088b9000000780053
:104c7c00000f7800410220001e80400046fe070015
:104c8c00100798001e0090000000e0000b0032009e
:104c9c009e009000210798002e0090004002b0006a
:104cac00200798001e029000ae4990002e01900043
:104cbc00ce0090003e009000570007001e009000b0
:084ccc000080fa000000060060
:020000040000fa
:104cd4000600fa00200798002e0090003000900093
:104ce40030009000100798001e0090006c004000f7
:104cf400aafe07001e0090006c00400080007800af
:104d040060cb2100b6ff07001e009000b0089000a1
:104d14007040800030089000808f500003003900fc
:104d240010002000000f7800020037000000eb00a4
:104d3400000f78001e0078000080fa0000000600d2
:020000040000fa
:104d44000c00fa004007980051079800ce0090002c
:104d5400110798000000eb00200798001e00900047
:104d6400600890000000e0000c0032001e0090007b
:104d7400b000900031079800de0090001e00900003
:104d840014ff07001e009000be0090003100980040
:104d940010002000000f7800020037000000eb0034
:104da400000f78001e0078000080fa000000060062
:020000040000fa
:104db4000200fa000000eb00000f78000700370043
:104dc4001e0078006a00b90080007800a0c42100a9
:104dd40000804000610007001e0fe8001e007800fc
:104de400e30f5000f6ff360000cc21005b00070003
:104df400a0cc21005900070040cd21005700070036
:104e0400e0cd21005500070000cc2100d0408800ef
:104e1400a0cc2100e04088000080fa0000000600d9
:020000040000fa
:104e24000a00fa00000f7800110798002207980082
:104e340063479800440798001e0090000000e000bb
:104e440004003a00ce0090004e0090000108780063
:104e540003003700ae0090004e0090000108780077
:104e64004e0090009e007800710898004e0090005b
:104e74009e00900001109800110020004e00900048
:0c4e8400ccf707000080fa0000000600d8
:020000040000fa
:104e90000200fa000000eb00000f78000700370066
:104ea0001e0078006a00b90080007800e0c8210088
:104eb000008040002a0007001e0fe8001e00780056
:104ec000e10f5000f6ff360020ca21002400070041
:104ed000c0ca21002200070060cb2100200007008b
:104ee00020ca210050408800c0ca210060408800cc
:084ef0000080fa00000006003a
:020000040000fa
:104ef8000600fa00200798002e0090000000e0004d
:104f080002003a00c0408000010037002e009000e7
:104f180010079800480207001e00900040609000ab
:104f2800e24f500006003a001e0090008040eb005f
:104f38004160980010002000000f78000200370040
:104f48000000eb00000f7800110207001e00780037
:084f58000080fa0000000600d1
:020000040000fa
:104f60000200fa00000f78009e0078006480400084
:104f7000800078001e007800110098001e00780064
:104f80008080eb00210098009e0078006480400043
:104f9000800078001e007800310098009e007800a4
:104fa00064804000800078001e0078004100980076
:104fb0001e0078008000eb00010878000080fa00f5
:044fc00000000600e7
:020000040000fa
:104fc4000600fa00200798000000eb00000f7800ac
:104fd400ae009000110798001e009000d0009000d1
:104fe400e0cd2100808f50000b003a001e0090009d
:104ff400a008900040cd2100808f500006003200b0
:105004001e009000200890000000e00002003a001a
:1050140010002000000f78001e0078000080fa00c5
:045024000000060082
:020000040000fa
:105028000c00fa0010079800210798003207980032
:1050380043079800540798004001200057fd0700d7
:10504800000f78001e0078000000e0000a0032001f
:105058001e0078008040eb00215098009e027800e6
:105068005e029000ce0190003e019000ae009000dc
:105078001e009000ecfd07001e0078000080fa007a
:04508800000006001e
:020000040000fa
:10508c000600fa0010079800210798009e00900077
:10509c00010f7800e70107002e0090000000e000ef
:1050ac00070032001e0078002050900080407800ed
:1050bc000124a0001e007800215098000600370043
:1050cc001e00780020509000804078000124a10040
:1050dc001e00780021509800ac0107000080fa00f7
:0450ec0000000600ba
:020000040000fa
:1050f0000a00fa0040079800030037000000000093
:105100000100370000000000204280000000e000a5
:10511000faff320020428000420620008e00780014
:105120003af307000000e000f6ff32001e00be0068
:1051300042fb07002007980031079800404280009a
:10514000e40047008001eb000001eb0076f107006e
:04515000edff370038
:020000040000fa
:105154000000fa0083000700c04080009007780038
:105164004f007800404088003400f9003200f90014
:105174004400f9005400f9003600f9004f077800a4
:105184004f06be004f05be004f04be004f03be00d5
:105194004f02be004f01be004f00be004200f900a6
:1051a40000000600100020000080fa000000060045
:020000040000fa
:1051b4000400fa0010079800a04180001000780055
:1051c40000f0a7000000ea000000e9004f00de0044
:1051d4009e009000800878001e0090001000780067
:1051e4000000e00004003a00a0418000300090007c
:1051f400100f7800020037000000eb00000f780069
:0c5204001e0078000080fa000000060088
:020000040000fa
:105210000000fa006226ef000041eb004100200090
:10522000a00020008dfe0700404288008002eb00b5
:10523000340020008001eb00820c20002175280042
:105240008087220093fa07008002eb0024002000f0
:105250008001eb00820c20002175280060b0220044
:0c5260008cfa07000080fa000000060035
:020000040000fa
:10526c000400fa00100798000000eb00000f780013
:10527c001e0090000000e000060032005002070003
:10528c008000eb001e009000e0fb070087f5070094
:10529c00000f78001e0078000000e00003003a00c8
:1052ac002823020000000000000000000080fa002b
:0452bc0000000600e8
:020000040000fa
:1052c0000400fa001007980011020700000f780090
:1052d000e04180009e007800808f50000500310082
:1052e00077f807001e0090001100200001087800e8
:1052f000030037001e0090008000eb0001087800da
:105300009e007800e14188001e0078000080fa00cd
:045310000000060093
:020000040000fa
:105314000000fa0049010700c04180000000e000dd
:105324000d003a0080ce21000cff070020cf2100a1
:105334000aff070080ce2100a041880020cf210071
:10534400b04188000041eb006100200040012000d2
:1053540041fe0700c04188000e0107000080fa00ea
:04536400000006003f
:020000040000fa
:105368000400fa00f07c200001002000008fbe003d
:105378009421ef009021ef001e007800900c880027
:1053880041058000f0ff28000080600000c0a000f8
:10539800400588008860a9009860a8009481a8004a
:1053a80094a1a90095e1a8000080fa000000060079
:020000040000fa
:1053b8000600fa0020079800ae0090001107980038
:1053c8001d0107001e009000205090000080fb0087
:1053d800640060000000e00003003a000000eb00f9
:1053e800000f78000200370010002000000f78003e
:1053f800e70007001e0078000080fa0000000600a1
:020000040000fa
